{
  "_format": "hh-sol-artifact-1",
  "contractName": "RozgaarEscrow",
  "sourceName": "contracts/RozgaarEscrow.sol",
  "abi": [
    {
      "inputs": [],
      "stateMutability": "nonpayable",
      "type": "constructor"
    },
    {
      "inputs": [],
      "name": "EnforcedPause",
      "type": "error"
    },
    {
      "inputs": [],
      "name": "ExpectedPause",
      "type": "error"
    },
    {
      "inputs": [
        {
          "internalType": "address",
          "name": "owner",
          "type": "address"
        }
      ],
      "name": "OwnableInvalidOwner",
      "type": "error"
    },
    {
      "inputs": [
        {
          "internalType": "address",
          "name": "account",
          "type": "address"
        }
      ],
      "name": "OwnableUnauthorizedAccount",
      "type": "error"
    },
    {
      "inputs": [],
      "name": "ReentrancyGuardReentrantCall",
      "type": "error"
    },
    {
      "anonymous": false,
      "inputs": [
        {
          "indexed": true,
          "internalType": "uint256",
          "name": "escrowId",
          "type": "uint256"
        },
        {
          "indexed": false,
          "internalType": "address",
          "name": "raiser",
          "type": "address"
        },
        {
          "indexed": false,
          "internalType": "string",
          "name": "reason",
          "type": "string"
        }
      ],
      "name": "DisputeRaised",
      "type": "event"
    },
    {
      "anonymous": false,
      "inputs": [
        {
          "indexed": true,
          "internalType": "uint256",
          "name": "escrowId",
          "type": "uint256"
        },
        {
          "indexed": false,
          "internalType": "address",
          "name": "winner",
          "type": "address"
        }
      ],
      "name": "DisputeResolved",
      "type": "event"
    },
    {
      "anonymous": false,
      "inputs": [
        {
          "indexed": true,
          "internalType": "uint256",
          "name": "escrowId",
          "type": "uint256"
        }
      ],
      "name": "EscrowCancelled",
      "type": "event"
    },
    {
      "anonymous": false,
      "inputs": [
        {
          "indexed": true,
          "internalType": "uint256",
          "name": "escrowId",
          "type": "uint256"
        },
        {
          "indexed": true,
          "internalType": "string",
          "name": "jobId",
          "type": "string"
        },
        {
          "indexed": true,
          "internalType": "address",
          "name": "employer",
          "type": "address"
        },
        {
          "indexed": false,
          "internalType": "address",
          "name": "worker",
          "type": "address"
        },
        {
          "indexed": false,
          "internalType": "uint256",
          "name": "amount",
          "type": "uint256"
        }
      ],
      "name": "EscrowCreated",
      "type": "event"
    },
    {
      "anonymous": false,
      "inputs": [
        {
          "indexed": true,
          "internalType": "uint256",
          "name": "escrowId",
          "type": "uint256"
        },
        {
          "indexed": false,
          "internalType": "uint256",
          "name": "amount",
          "type": "uint256"
        }
      ],
      "name": "EscrowFunded",
      "type": "event"
    },
    {
      "anonymous": false,
      "inputs": [
        {
          "indexed": true,
          "internalType": "uint256",
          "name": "escrowId",
          "type": "uint256"
        },
        {
          "indexed": false,
          "internalType": "uint256",
          "name": "amount",
          "type": "uint256"
        }
      ],
      "name": "EscrowRefunded",
      "type": "event"
    },
    {
      "anonymous": false,
      "inputs": [
        {
          "indexed": true,
          "internalType": "address",
          "name": "previousOwner",
          "type": "address"
        },
        {
          "indexed": true,
          "internalType": "address",
          "name": "newOwner",
          "type": "address"
        }
      ],
      "name": "OwnershipTransferred",
      "type": "event"
    },
    {
      "anonymous": false,
      "inputs": [
        {
          "indexed": false,
          "internalType": "address",
          "name": "account",
          "type": "address"
        }
      ],
      "name": "Paused",
      "type": "event"
    },
    {
      "anonymous": false,
      "inputs": [
        {
          "indexed": true,
          "internalType": "uint256",
          "name": "escrowId",
          "type": "uint256"
        },
        {
          "indexed": false,
          "internalType": "address",
          "name": "employer",
          "type": "address"
        }
      ],
      "name": "PaymentApproved",
      "type": "event"
    },
    {
      "anonymous": false,
      "inputs": [
        {
          "indexed": true,
          "internalType": "uint256",
          "name": "escrowId",
          "type": "uint256"
        },
        {
          "indexed": false,
          "internalType": "uint256",
          "name": "amount",
          "type": "uint256"
        },
        {
          "indexed": false,
          "internalType": "uint256",
          "name": "fee",
          "type": "uint256"
        }
      ],
      "name": "PaymentReleased",
      "type": "event"
    },
    {
      "anonymous": false,
      "inputs": [
        {
          "indexed": false,
          "internalType": "uint256",
          "name": "newFee",
          "type": "uint256"
        }
      ],
      "name": "PlatformFeeUpdated",
      "type": "event"
    },
    {
      "anonymous": false,
      "inputs": [
        {
          "indexed": false,
          "internalType": "address",
          "name": "account",
          "type": "address"
        }
      ],
      "name": "Unpaused",
      "type": "event"
    },
    {
      "anonymous": false,
      "inputs": [
        {
          "indexed": true,
          "internalType": "uint256",
          "name": "escrowId",
          "type": "uint256"
        },
        {
          "indexed": false,
          "internalType": "address",
          "name": "worker",
          "type": "address"
        }
      ],
      "name": "WorkCompleted",
      "type": "event"
    },
    {
      "inputs": [],
      "name": "FEE_DENOMINATOR",
      "outputs": [
        {
          "internalType": "uint256",
          "name": "",
          "type": "uint256"
        }
      ],
      "stateMutability": "view",
      "type": "function"
    },
    {
      "inputs": [
        {
          "internalType": "uint256",
          "name": "_escrowId",
          "type": "uint256"
        }
      ],
      "name": "cancelEscrow",
      "outputs": [],
      "stateMutability": "nonpayable",
      "type": "function"
    },
    {
      "inputs": [
        {
          "internalType": "uint256",
          "name": "_escrowId",
          "type": "uint256"
        }
      ],
      "name": "confirmCompletion",
      "outputs": [],
      "stateMutability": "nonpayable",
      "type": "function"
    },
    {
      "inputs": [
        {
          "internalType": "string",
          "name": "_jobId",
          "type": "string"
        },
        {
          "internalType": "address",
          "name": "_worker",
          "type": "address"
        }
      ],
      "name": "createEscrow",
      "outputs": [
        {
          "internalType": "uint256",
          "name": "",
          "type": "uint256"
        }
      ],
      "stateMutability": "payable",
      "type": "function"
    },
    {
      "inputs": [],
      "name": "disputeTimeoutDays",
      "outputs": [
        {
          "internalType": "uint256",
          "name": "",
          "type": "uint256"
        }
      ],
      "stateMutability": "view",
      "type": "function"
    },
    {
      "inputs": [
        {
          "internalType": "uint256",
          "name": "_escrowId",
          "type": "uint256"
        }
      ],
      "name": "emergencyRefund",
      "outputs": [],
      "stateMutability": "nonpayable",
      "type": "function"
    },
    {
      "inputs": [
        {
          "internalType": "address",
          "name": "",
          "type": "address"
        },
        {
          "internalType": "uint256",
          "name": "",
          "type": "uint256"
        }
      ],
      "name": "employerEscrows",
      "outputs": [
        {
          "internalType": "uint256",
          "name": "",
          "type": "uint256"
        }
      ],
      "stateMutability": "view",
      "type": "function"
    },
    {
      "inputs": [],
      "name": "escrowCounter",
      "outputs": [
        {
          "internalType": "uint256",
          "name": "",
          "type": "uint256"
        }
      ],
      "stateMutability": "view",
      "type": "function"
    },
    {
      "inputs": [
        {
          "internalType": "uint256",
          "name": "",
          "type": "uint256"
        }
      ],
      "name": "escrows",
      "outputs": [
        {
          "internalType": "uint256",
          "name": "escrowId",
          "type": "uint256"
        },
        {
          "internalType": "string",
          "name": "jobId",
          "type": "string"
        },
        {
          "internalType": "address",
          "name": "employer",
          "type": "address"
        },
        {
          "internalType": "address",
          "name": "worker",
          "type": "address"
        },
        {
          "internalType": "uint256",
          "name": "amount",
          "type": "uint256"
        },
        {
          "internalType": "uint256",
          "name": "platformFee",
          "type": "uint256"
        },
        {
          "internalType": "enum RozgaarEscrow.EscrowStatus",
          "name": "status",
          "type": "uint8"
        },
        {
          "internalType": "uint256",
          "name": "createdAt",
          "type": "uint256"
        },
        {
          "internalType": "uint256",
          "name": "completedAt",
          "type": "uint256"
        },
        {
          "internalType": "uint256",
          "name": "releasedAt",
          "type": "uint256"
        },
        {
          "internalType": "bool",
          "name": "workerConfirmed",
          "type": "bool"
        },
        {
          "internalType": "bool",
          "name": "employerApproved",
          "type": "bool"
        },
        {
          "internalType": "bool",
          "name": "disputed",
          "type": "bool"
        },
        {
          "internalType": "string",
          "name": "disputeReason",
          "type": "string"
        }
      ],
      "stateMutability": "view",
      "type": "function"
    },
    {
      "inputs": [
        {
          "internalType": "address",
          "name": "_employer",
          "type": "address"
        }
      ],
      "name": "getEmployerEscrows",
      "outputs": [
        {
          "internalType": "uint256[]",
          "name": "",
          "type": "uint256[]"
        }
      ],
      "stateMutability": "view",
      "type": "function"
    },
    {
      "inputs": [
        {
          "internalType": "uint256",
          "name": "_escrowId",
          "type": "uint256"
        }
      ],
      "name": "getEscrow",
      "outputs": [
        {
          "components": [
            {
              "internalType": "uint256",
              "name": "escrowId",
              "type": "uint256"
            },
            {
              "internalType": "string",
              "name": "jobId",
              "type": "string"
            },
            {
              "internalType": "address",
              "name": "employer",
              "type": "address"
            },
            {
              "internalType": "address",
              "name": "worker",
              "type": "address"
            },
            {
              "internalType": "uint256",
              "name": "amount",
              "type": "uint256"
            },
            {
              "internalType": "uint256",
              "name": "platformFee",
              "type": "uint256"
            },
            {
              "internalType": "enum RozgaarEscrow.EscrowStatus",
              "name": "status",
              "type": "uint8"
            },
            {
              "internalType": "uint256",
              "name": "createdAt",
              "type": "uint256"
            },
            {
              "internalType": "uint256",
              "name": "completedAt",
              "type": "uint256"
            },
            {
              "internalType": "uint256",
              "name": "releasedAt",
              "type": "uint256"
            },
            {
              "internalType": "bool",
              "name": "workerConfirmed",
              "type": "bool"
            },
            {
              "internalType": "bool",
              "name": "employerApproved",
              "type": "bool"
            },
            {
              "internalType": "bool",
              "name": "disputed",
              "type": "bool"
            },
            {
              "internalType": "string",
              "name": "disputeReason",
              "type": "string"
            }
          ],
          "internalType": "struct RozgaarEscrow.Escrow",
          "name": "",
          "type": "tuple"
        }
      ],
      "stateMutability": "view",
      "type": "function"
    },
    {
      "inputs": [
        {
          "internalType": "string",
          "name": "_jobId",
          "type": "string"
        }
      ],
      "name": "getEscrowByJobId",
      "outputs": [
        {
          "components": [
            {
              "internalType": "uint256",
              "name": "escrowId",
              "type": "uint256"
            },
            {
              "internalType": "string",
              "name": "jobId",
              "type": "string"
            },
            {
              "internalType": "address",
              "name": "employer",
              "type": "address"
            },
            {
              "internalType": "address",
              "name": "worker",
              "type": "address"
            },
            {
              "internalType": "uint256",
              "name": "amount",
              "type": "uint256"
            },
            {
              "internalType": "uint256",
              "name": "platformFee",
              "type": "uint256"
            },
            {
              "internalType": "enum RozgaarEscrow.EscrowStatus",
              "name": "status",
              "type": "uint8"
            },
            {
              "internalType": "uint256",
              "name": "createdAt",
              "type": "uint256"
            },
            {
              "internalType": "uint256",
              "name": "completedAt",
              "type": "uint256"
            },
            {
              "internalType": "uint256",
              "name": "releasedAt",
              "type": "uint256"
            },
            {
              "internalType": "bool",
              "name": "workerConfirmed",
              "type": "bool"
            },
            {
              "internalType": "bool",
              "name": "employerApproved",
              "type": "bool"
            },
            {
              "internalType": "bool",
              "name": "disputed",
              "type": "bool"
            },
            {
              "internalType": "string",
              "name": "disputeReason",
              "type": "string"
            }
          ],
          "internalType": "struct RozgaarEscrow.Escrow",
          "name": "",
          "type": "tuple"
        }
      ],
      "stateMutability": "view",
      "type": "function"
    },
    {
      "inputs": [
        {
          "internalType": "address",
          "name": "_worker",
          "type": "address"
        }
      ],
      "name": "getWorkerEscrows",
      "outputs": [
        {
          "internalType": "uint256[]",
          "name": "",
          "type": "uint256[]"
        }
      ],
      "stateMutability": "view",
      "type": "function"
    },
    {
      "inputs": [
        {
          "internalType": "string",
          "name": "",
          "type": "string"
        }
      ],
      "name": "jobIdToEscrowId",
      "outputs": [
        {
          "internalType": "uint256",
          "name": "",
          "type": "uint256"
        }
      ],
      "stateMutability": "view",
      "type": "function"
    },
    {
      "inputs": [],
      "name": "owner",
      "outputs": [
        {
          "internalType": "address",
          "name": "",
          "type": "address"
        }
      ],
      "stateMutability": "view",
      "type": "function"
    },
    {
      "inputs": [],
      "name": "pause",
      "outputs": [],
      "stateMutability": "nonpayable",
      "type": "function"
    },
    {
      "inputs": [],
      "name": "paused",
      "outputs": [
        {
          "internalType": "bool",
          "name": "",
          "type": "bool"
        }
      ],
      "stateMutability": "view",
      "type": "function"
    },
    {
      "inputs": [],
      "name": "platformFeePercentage",
      "outputs": [
        {
          "internalType": "uint256",
          "name": "",
          "type": "uint256"
        }
      ],
      "stateMutability": "view",
      "type": "function"
    },
    {
      "inputs": [
        {
          "internalType": "uint256",
          "name": "_escrowId",
          "type": "uint256"
        },
        {
          "internalType": "string",
          "name": "_reason",
          "type": "string"
        }
      ],
      "name": "raiseDispute",
      "outputs": [],
      "stateMutability": "nonpayable",
      "type": "function"
    },
    {
      "inputs": [
        {
          "internalType": "uint256",
          "name": "_escrowId",
          "type": "uint256"
        }
      ],
      "name": "releasePayment",
      "outputs": [],
      "stateMutability": "nonpayable",
      "type": "function"
    },
    {
      "inputs": [],
      "name": "renounceOwnership",
      "outputs": [],
      "stateMutability": "nonpayable",
      "type": "function"
    },
    {
      "inputs": [
        {
          "internalType": "uint256",
          "name": "_escrowId",
          "type": "uint256"
        },
        {
          "internalType": "bool",
          "name": "_releaseToWorker",
          "type": "bool"
        }
      ],
      "name": "resolveDispute",
      "outputs": [],
      "stateMutability": "nonpayable",
      "type": "function"
    },
    {
      "inputs": [
        {
          "internalType": "uint256",
          "name": "_days",
          "type": "uint256"
        }
      ],
      "name": "setDisputeTimeout",
      "outputs": [],
      "stateMutability": "nonpayable",
      "type": "function"
    },
    {
      "inputs": [
        {
          "internalType": "uint256",
          "name": "_newFee",
          "type": "uint256"
        }
      ],
      "name": "setPlatformFee",
      "outputs": [],
      "stateMutability": "nonpayable",
      "type": "function"
    },
    {
      "inputs": [
        {
          "internalType": "address",
          "name": "newOwner",
          "type": "address"
        }
      ],
      "name": "transferOwnership",
      "outputs": [],
      "stateMutability": "nonpayable",
      "type": "function"
    },
    {
      "inputs": [],
      "name": "unpause",
      "outputs": [],
      "stateMutability": "nonpayable",
      "type": "function"
    },
    {
      "inputs": [
        {
          "internalType": "address",
          "name": "",
          "type": "address"
        },
        {
          "internalType": "uint256",
          "name": "",
          "type": "uint256"
        }
      ],
      "name": "workerEscrows",
      "outputs": [
        {
          "internalType": "uint256",
          "name": "",
          "type": "uint256"
        }
      ],
      "stateMutability": "view",
      "type": "function"
    },
    {
      "stateMutability": "payable",
      "type": "receive"
    }
  ],
  "bytecode": "0x6080806040523461008957600160005533156100735760018054336001600160a01b03198216811790925560405191906001600160a01b03167f8be0079c531659141344cd1fd0a4f28419497f9722a3daafe3b4186f6b6457e0600080a360fa6003556007600455612247908161008f8239f35b631e4fbdf760e01b815260006004820152602490fd5b600080fdfe6080604052600436101561005e575b361561001957600080fd5b60405162461bcd60e51b815260206004820152601b60248201527f446972656374207061796d656e7473206e6f7420616c6c6f77656400000000006044820152606490fd5b60003560e01c8063012f52ee14611ae957806312e8e2c314611a5557806334b25ee21461184c5780633f4ba83a146117da5780634110501e146117625780635aef573c1461148a5780635c77298d14610db85780635c975abb14610d9257806370e5deb914610bc7578063715018a614610b6a5780637d19e59614610aaf5780638456cb5914610a4d578063875ae9ad146109f057806388685cd91461082a5780638da5cb5b14610801578063919b4478146107b757806394aeb6131461066c578063c7ceafea1461064e578063c8092955146105f6578063cdd78cfc146105d8578063d19c034014610554578063d73792a914610537578063dfa405f6146103b5578063e0182436146102b0578063e1231d501461023d578063e495b3291461021f5763f2fde38b0361000e573461021a57602036600319011261021a576101a5611d68565b6101ad611f1d565b6001600160a01b0390811690811561020157600154826bffffffffffffffffffffffff60a01b821617600155167f8be0079c531659141344cd1fd0a4f28419497f9722a3daafe3b4186f6b6457e0600080a3005b604051631e4fbdf760e01b815260006004820152602490fd5b600080fd5b3461021a57600036600319011261021a576020600454604051908152f35b3461021a57602036600319011261021a57600435610259611f1d565b6001811015806102a5575b1561026e57600455005b60405162461bcd60e51b815260206004820152600f60248201526e125b9d985b1a59081d1a5b595bdd5d608a1b6044820152606490fd5b50601e811115610264565b3461021a57602036600319011261021a57600435801515806103a9575b6102d690611fd3565b8060005260056020526102fa60018060a01b0360026040600020015416331461205b565b8060005260056020526006604060002001805460ff811660078110156103935761034e5760ff191660061790557f0d977c6b1a383ac5ce532b4a668d0ef9ad38478e1a5ff28abb221f4b682b2643600080a2005b60405162461bcd60e51b815260206004820152601b60248201527f43616e6e6f742063616e63656c2066756e64656420657363726f7700000000006044820152606490fd5b634e487b7160e01b600052602160045260246000fd5b506002548111156102cd565b3461021a5760208060031936011261021a5760043567ffffffffffffffff811161021a57816103eb610407923690600401611dd5565b6103f36121aa565b508160405193828580945193849201611d13565b8101600681520301902054908115610500576104fc91600052600581526104ea600b60406000206040519361043b85611c2e565b8154855261044b60018301611c6d565b9085015260028101546001600160a01b039081166040860152600382015416606085015260048101546080850152600581015460a085015260068101546104989060ff1660c08601611f49565b600781015460e08501526008810154610100850152600981015461012085015260ff600a8201548181161515610140870152818160081c16151561016087015260101c16151561018085015201611c6d565b6101a082015260405191829182611e1c565b0390f35b6064906040519062461bcd60e51b82526004820152601060248201526f115cd8dc9bddc81b9bdd08199bdd5b9960821b6044820152fd5b3461021a57600036600319011261021a5760206040516127108152f35b3461021a5760208060031936011261021a576001600160a01b03610576611d68565b1660005260088152604060002090604051908181845491828152019360005281600020916000905b8282106105c1576104fc856105b581890382611c4b565b60405191829182611d7e565b83548652948501946001938401939091019061059e565b3461021a57600036600319011261021a576020600354604051908152f35b3461021a57604036600319011261021a5761060f611d68565b6001600160a01b031660009081526008602052604090208054602435919082101561021a5760209161064091611eef565b90546040519160031b1c8152f35b3461021a57600036600319011261021a576020600254604051908152f35b3461021a5760208060031936011261021a5760043590811515806107ab575b61069490611fd3565b60008281526005825260409020600301546001600160a01b03163303610776576106bc611f8f565b816000526005815260406000206006810190815460ff811660078110156103935760016106e99114612017565b600a82019182549260ff841661073d5760ff199384166001179055426008909101551660021790556040513381527ff2063f41103e70b2ce51ce8728d30addd447c937a45db5098291a80d419ea3669190a2005b60405162461bcd60e51b8152600481018790526011602482015270105b1c9958591e4818dbdb999a5c9b5959607a1b6044820152606490fd5b6064906040519062461bcd60e51b82526004820152600e60248201526d2737ba103a3432903bb7b935b2b960911b6044820152fd5b5060025482111561068b565b3461021a57604036600319011261021a576107d0611d68565b6001600160a01b031660009081526007602052604090208054602435919082101561021a5760209161064091611eef565b3461021a57600036600319011261021a576001546040516001600160a01b039091168152602090f35b3461021a5760208060031936011261021a5760043590811515806109e4575b61085290611fd3565b816000526005815260018060a01b03906108778260026040600020015416331461205b565b61087f611f8f565b610887611fb0565b826000526005815260406000209160068301805460ff81166007811015610393578060026108be92149081156109d9575b50612017565b600a8501805460ff8160101c1661099f57600080806005886109488380807f3c70b1e8034b5738ec77fbfdaa4d28906a0b3160018d67a2dc7b534e53e33fe09f9d60409f9d8f9d9160038f6109629f93869f8796600496610100869361ff00191617905542600985015560ff19161790550154169d019c8d54905af161094261209a565b506120ca565b600154169801978854905af161095c61209a565b50612116565b857f7c0257138bc682dcff9eb84d702bf9118b11a37ab9af95828ea7332c078eb93f838651338152a2549154908351928352820152a26001600055005b60405162461bcd60e51b8152600481018790526012602482015271115cd8dc9bddc81a5cc8191a5cdc1d5d195960721b6044820152606490fd5b6001915014886108b8565b50600254821115610849565b3461021a57602036600319011261021a5760043567ffffffffffffffff811161021a57610a3a6020610a2781933690600401611dd5565b8160405193828580945193849201611d13565b8101600681520301902054604051908152f35b3461021a57600036600319011261021a57610a66611f1d565b610a6e611f8f565b6001805460ff60a01b1916600160a01b1790556040513381527f62e78cea01bee320cd4e420270b5ea74000d11b0c9f74754ebdbfc544b05a25890602090a1005b3461021a57602036600319011261021a57600435610acb6121aa565b5080151580610b5e575b610ade90611fd3565b60005260056020526104fc60406000206104ea600b60405192610b0084611c2e565b80548452610b1060018201611c6d565b602085015260028101546001600160a01b039081166040860152600382015416606085015260048101546080850152600581015460a085015260068101546104989060ff1660c08601611f49565b50600254811115610ad5565b3461021a57600036600319011261021a57610b83611f1d565b600180546001600160a01b031981169091556000906001600160a01b03167f8be0079c531659141344cd1fd0a4f28419497f9722a3daafe3b4186f6b6457e08280a3005b3461021a5760208060031936011261021a576004359081151580610d86575b610bef90611fd3565b816000526005815260018060a01b03610c138160026040600020015416331461205b565b610c1b611fb0565b826000526005825260406000209060068201805460ff81166007811015610393576001610c489114612017565b60078401546004546201518090818102918183041490151715610d7057610c6e91612158565b4210610d355760ff600a85015416610cf057600080807f8e09fed7623ad9f8d5a701dd9f3233197147d0043c564dfb1a6c0023ab568c209796600296610ce2966005849760ff1916179055610ccc6004830154600584015490612158565b9788920154165af1610cdc61209a565b50612165565b604051908152a26001600055005b60405162461bcd60e51b815260048101869052601860248201527f576f726b657220616c726561647920636f6e6669726d656400000000000000006044820152606490fd5b60405162461bcd60e51b8152600481018690526013602482015272151a5b595bdd5d081b9bdd081c995858da1959606a1b6044820152606490fd5b634e487b7160e01b600052601160045260246000fd5b50600254821115610be6565b3461021a57600036600319011261021a57602060ff60015460a01c166040519015158152f35b604036600319011261021a5760043567ffffffffffffffff811161021a57610de4903690600401611dd5565b6024356001600160a01b038116810361021a57610dff611f8f565b610e07611fb0565b6001600160a01b0381161561144c576001600160a01b03811633146114075734156113c2576040516020818451610e418183858901611d13565b810160068152030190205461137257600254906000198214610d7057600182016002556003548034029034820403610d7057346127108204340311610d705760405193610e8d85611c2e565b60018401855280602086015233604086015260018060a01b0383166060860152612710820434036080860152612710820460a0860152600160c08601524260e08601526000610100860152600061012086015260006101408601526000610160860152600061018086015260405180602081011067ffffffffffffffff60208301111761128c5760208101604052600081526101a086015260018401600052600560205260406000209480518655602081015180519067ffffffffffffffff821161128c578190610f6160018a0154611bf4565b601f811161131f575b50602090601f83116001146112ad576000926112a2575b50508160011b916000199060031b1c19161760018701555b60408101516002870180546001600160a01b039283166001600160a01b03199182161790915560608301516003890180549190931691161790556080810151600487015560a0810151600587015560c081015190600687016007831015610393576101a09260ff8019835416911617905560e0810151600788015561010081015160088801556101208101516009880155600a87016101408201511515815461ff00610160850151151560081b169060ff62ff0000610180870151151560101b1693169062ffffff19161717179055015194855167ffffffffffffffff811161128c57611089600b830154611bf4565b96601f8811611245575b602097508790601f83116001146111d1578261271095936111429593600b936000926111c6575b50508160011b916000199060031b1c1916179101555b60405181516110e281838b8601611d13565b81019060068252888160018a01930301902055336000526007875261110e600187016040600020611f55565b60018060a01b0385166000526008875261112f600187016040600020611f55565b8660405192828480945193849201611d13565b8101039020916040519360018060a01b031684520434038483015233917fb02c93db0f7ca21eeffccf25b57838c1b5708036f36670b6f7a37d19544444a660406001860192a46040513481527f911052e1be46242b46bf3c2762227ff37c000e5fe38727638096f3a17fbfe170836001840192a26001600055600160405191018152f35b015190508b806110ba565b90601f19831691600b8501600052896000209260005b81811061122e5750936111429593600b93600193836127109a9810611215575b505050811b019101556110d0565b015160001960f88460031b161c191690558b8080611207565b92938b6001819287860151815501950193016111e7565b600b83016000526020600020601f830160051c810160208410611285575b601f8a0160051c82018110611279575050611093565b60008155600101611263565b5080611263565b634e487b7160e01b600052604160045260246000fd5b015190508880610f81565b9250600189016000526020600020906000935b601f1984168510611304576001945083601f198116106112eb575b505050811b016001870155610f99565b015160001960f88460031b161c191690558880806112db565b818101518355602094850194600190930192909101906112c0565b909150600189016000526020600020601f840160051c81016020851061136b575b90849392915b601f830160051c8201811061135c575050610f6a565b60008155859450600101611346565b5080611340565b60405162461bcd60e51b815260206004820152602260248201527f457363726f7720616c72656164792065786973747320666f722074686973206a60448201526137b160f11b6064820152608490fd5b60405162461bcd60e51b815260206004820152601d60248201527f416d6f756e74206d7573742062652067726561746572207468616e20300000006044820152606490fd5b60405162461bcd60e51b815260206004820152601960248201527f456d706c6f7965722063616e6e6f7420626520776f726b6572000000000000006044820152606490fd5b60405162461bcd60e51b8152602060048201526016602482015275496e76616c696420776f726b6572206164647265737360501b6044820152606490fd5b3461021a57604036600319011261021a5760043567ffffffffffffffff60243581811161021a576114bf903690600401611dd5565b82151580611756575b6114d190611fd3565b6114d9611f8f565b8260005260209160058352604060002060018060a01b03806002830154163314908115611746575b501561171057600681019160ff835416916007831015610393576115316001938481149081156117055750612017565b600a8101805460ff8160101c166116cd579062010000600b939262ff000019161790550191845191821161128c576115698354611bf4565b601f8111611684575b5085601f83116001146115f757928280604097947f1b84372106d77c6daea0dda35bbc0229d10a83f58ec8990928849251936823419997946115e7976000936115ec575b501b916000199060031b1c19161790555b600460ff1982541617905583519384933385528401526040830190611d36565b0390a2005b87015192508c6115b6565b601f9291921982169084600052876000209160005b81811061166f5750926115e795926040989592827f1b84372106d77c6daea0dda35bbc0229d10a83f58ec8990928849251936823419b999610611656575b5050811b0190556115c7565b86015160001960f88460031b161c191690558a8061164a565b8883015184559285019291890191890161160c565b8360005286600020601f840160051c8101918885106116c3575b601f0160051c019082905b8281106116b7575050611572565b600081550182906116a9565b909150819061169e565b60405162461bcd60e51b815260048101899052601060248201526f105b1c9958591e48191a5cdc1d5d195960821b6044820152606490fd5b6002915014896108b8565b60405162461bcd60e51b815260048101859052600e60248201526d139bdd08185d5d1a1bdc9a5e995960921b6044820152606490fd5b9050600382015416331486611501565b506002548311156114c8565b3461021a5760208060031936011261021a576001600160a01b03611784611d68565b1660005260078152604060002090604051908181845491828152019360005281600020916000905b8282106117c3576104fc856105b581890382611c4b565b8354865294850194600193840193909101906117ac565b3461021a57600036600319011261021a576117f3611f1d565b60015460ff8160a01c161561183a5760ff60a01b19166001556040513381527f5db9ee0a495bf2e6ff9c91a7834c1ba4fdd244a5e8aa4e537bd38aeae4b073aa90602090a1005b604051638dfc202b60e01b8152600490fd5b3461021a57604036600319011261021a57600435602435801515810361021a57611874611f1d565b81151580611a49575b61188690611fd3565b61188e611fb0565b81600052602060058152604060002091600683019081549060ff8216600781101561039357600403611a15571561197a5750916040917f3c70b1e8034b5738ec77fbfdaa4d28906a0b3160018d67a2dc7b534e53e33fe093600360ff1982541617905560038201857ff77ceb5e091d2da041bc760667f9d5fe7a756949eaf29250ad0e60ca6f4c27d98360018060a01b03808554169461193e600080808060048d019a8b54905af161094261209a565b61195d6000808080600587600154169d019c8d54905af161095c61209a565b54168751908152a2549154908351928352820152a25b6001600055005b9060057f8e09fed7623ad9f8d5a701dd9f3233197147d0043c564dfb1a6c0023ab568c20949260ff1916179055837ff77ceb5e091d2da041bc760667f9d5fe7a756949eaf29250ad0e60ca6f4c27d98360026119df6004860154600587015490612158565b940160018060a01b0390611a0060008080808a878754165af1610cdc61209a565b5416604051908152a2604051908152a2611973565b60405162461bcd60e51b815260048101859052600c60248201526b139bdd08191a5cdc1d5d195960a21b6044820152606490fd5b5060025482111561187d565b3461021a57602036600319011261021a57600435611a71611f1d565b6103e88111611aab576020817f45610d581145924dd7090a5017e5f2b1d6f42213bb2e95707ff86846bbfcb1ca92600355604051908152a1005b60405162461bcd60e51b815260206004820152601660248201527546656520746f6f206869676820286d6178203130252960501b6044820152606490fd5b3461021a57602036600319011261021a5760043560005260056020526040600020805460018201611b1990611c6d565b91600160a01b6001900380600283015416906003830154169160048101546005820154600683015460ff16600784015490600885015492600986015494600a87015496600b01611b6890611c6d565b986040519b8c9b8c528b6101c06020819201528c01611b8691611d36565b9860408c015260608b015260808a015260a089015260c08801611ba891611d5b565b60e087015261010086015261012085015260ff811615156101408501528060081c60ff16151561016085015260101c60ff1615156101808401528281036101a08401526104fc91611d36565b90600182811c92168015611c24575b6020831014611c0e57565b634e487b7160e01b600052602260045260246000fd5b91607f1691611c03565b6101c0810190811067ffffffffffffffff82111761128c57604052565b90601f8019910116810190811067ffffffffffffffff82111761128c57604052565b9060405191826000825492611c8184611bf4565b908184526001948581169081600014611cf05750600114611cad575b5050611cab92500383611c4b565b565b9093915060005260209081600020936000915b818310611cd8575050611cab93508201013880611c9d565b85548884018501529485019487945091830191611cc0565b915050611cab94506020925060ff191682840152151560051b8201013880611c9d565b60005b838110611d265750506000910152565b8181015183820152602001611d16565b90602091611d4f81518092818552858086019101611d13565b601f01601f1916010190565b9060078210156103935752565b600435906001600160a01b038216820361021a57565b6020908160408183019282815285518094520193019160005b828110611da5575050505090565b835185529381019392810192600101611d97565b67ffffffffffffffff811161128c57601f01601f191660200190565b81601f8201121561021a57803590611dec82611db9565b92611dfa6040519485611c4b565b8284526020838301011161021a57816000926020809301838601378301015290565b90611eec916020815281516020820152602082015190611e4a6101c0928360408401526101e0830190611d36565b9260018060a01b038060408301511660608401526060820151166080830152608081015160a083015260a081015160c0830152611e8f60c082015160e0840190611d5b565b60e081015161010090818401528101516101209081840152810151610140908184015281015115156101609081840152810151151561018090818401528101511515906101a09182840152015191601f1982850301910152611d36565b90565b8054821015611f075760005260206000200190600090565b634e487b7160e01b600052603260045260246000fd5b6001546001600160a01b03163303611f3157565b60405163118cdaa760e01b8152336004820152602490fd5b60078210156103935752565b80546801000000000000000081101561128c57611f7791600182018155611eef565b819291549060031b91821b91600019901b1916179055565b60ff60015460a01c16611f9e57565b60405163d93c066560e01b8152600490fd5b600260005414611fc1576002600055565b604051633ee5aeb560e01b8152600490fd5b15611fda57565b60405162461bcd60e51b8152602060048201526015602482015274115cd8dc9bddc8191bd95cc81b9bdd08195e1a5cdd605a1b6044820152606490fd5b1561201e57565b60405162461bcd60e51b8152602060048201526015602482015274496e76616c696420657363726f772073746174757360581b6044820152606490fd5b1561206257565b60405162461bcd60e51b815260206004820152601060248201526f2737ba103a34329032b6b83637bcb2b960811b6044820152606490fd5b3d156120c5573d906120ab82611db9565b916120b96040519384611c4b565b82523d6000602084013e565b606090565b156120d157565b60405162461bcd60e51b815260206004820152601760248201527f5061796d656e74207472616e73666572206661696c65640000000000000000006044820152606490fd5b1561211d57565b60405162461bcd60e51b8152602060048201526013602482015272119959481d1c985b9cd9995c8819985a5b1959606a1b6044820152606490fd5b91908201809211610d7057565b1561216c57565b60405162461bcd60e51b81526020600482015260166024820152751499599d5b99081d1c985b9cd9995c8819985a5b195960521b6044820152606490fd5b604051906121b782611c2e565b60606101a083600080825283602083015280604083015280848301528060808301528060a08301528060c08301528060e083015280610100830152806101208301528061014083015280610160830152610180820152015256fea2646970667358221220c84a84b870468104ae60cc788e1d81db0170b0acc22fb7633ec54059322ae9b964736f6c63430008140033",
  "linkReferences": {},
  "deployedLinkReferences": {}
}