{
  "_format": "hh-sol-artifact-1",
  "contractName": "UserRegistry",
  "sourceName": "contracts/UserRegistry.sol",
  "abi": [
    {
      "inputs": [],
      "stateMutability": "nonpayable",
      "type": "constructor"
    },
    {
      "inputs": [
        {
          "internalType": "address",
          "name": "owner",
          "type": "address"
        }
      ],
      "name": "OwnableInvalidOwner",
      "type": "error"
    },
    {
      "inputs": [
        {
          "internalType": "address",
          "name": "account",
          "type": "address"
        }
      ],
      "name": "OwnableUnauthorizedAccount",
      "type": "error"
    },
    {
      "anonymous": false,
      "inputs": [
        {
          "indexed": true,
          "internalType": "address",
          "name": "wallet",
          "type": "address"
        },
        {
          "indexed": false,
          "internalType": "string",
          "name": "badgeType",
          "type": "string"
        },
        {
          "indexed": false,
          "internalType": "string",
          "name": "issuer",
          "type": "string"
        }
      ],
      "name": "BadgeIssued",
      "type": "event"
    },
    {
      "anonymous": false,
      "inputs": [
        {
          "indexed": true,
          "internalType": "address",
          "name": "previousOwner",
          "type": "address"
        },
        {
          "indexed": true,
          "internalType": "address",
          "name": "newOwner",
          "type": "address"
        }
      ],
      "name": "OwnershipTransferred",
      "type": "event"
    },
    {
      "anonymous": false,
      "inputs": [
        {
          "indexed": true,
          "internalType": "address",
          "name": "wallet",
          "type": "address"
        },
        {
          "indexed": false,
          "internalType": "string",
          "name": "newProfileHash",
          "type": "string"
        }
      ],
      "name": "ProfileUpdated",
      "type": "event"
    },
    {
      "anonymous": false,
      "inputs": [
        {
          "indexed": true,
          "internalType": "address",
          "name": "wallet",
          "type": "address"
        },
        {
          "indexed": false,
          "internalType": "uint256",
          "name": "newScore",
          "type": "uint256"
        }
      ],
      "name": "ReputationUpdated",
      "type": "event"
    },
    {
      "anonymous": false,
      "inputs": [
        {
          "indexed": true,
          "internalType": "address",
          "name": "wallet",
          "type": "address"
        },
        {
          "indexed": false,
          "internalType": "string",
          "name": "userId",
          "type": "string"
        },
        {
          "indexed": false,
          "internalType": "string",
          "name": "role",
          "type": "string"
        }
      ],
      "name": "UserRegistered",
      "type": "event"
    },
    {
      "inputs": [
        {
          "internalType": "string",
          "name": "_userId",
          "type": "string"
        }
      ],
      "name": "getAddressByUserId",
      "outputs": [
        {
          "internalType": "address",
          "name": "",
          "type": "address"
        }
      ],
      "stateMutability": "view",
      "type": "function"
    },
    {
      "inputs": [
        {
          "internalType": "address",
          "name": "_user",
          "type": "address"
        }
      ],
      "name": "getUser",
      "outputs": [
        {
          "components": [
            {
              "internalType": "string",
              "name": "userId",
              "type": "string"
            },
            {
              "internalType": "string",
              "name": "profileHash",
              "type": "string"
            },
            {
              "internalType": "string",
              "name": "role",
              "type": "string"
            },
            {
              "internalType": "bool",
              "name": "isRegistered",
              "type": "bool"
            },
            {
              "internalType": "uint256",
              "name": "reputationScore",
              "type": "uint256"
            },
            {
              "internalType": "uint256",
              "name": "totalJobs",
              "type": "uint256"
            },
            {
              "internalType": "uint256",
              "name": "verifiedAt",
              "type": "uint256"
            },
            {
              "internalType": "bool",
              "name": "isVerified",
              "type": "bool"
            }
          ],
          "internalType": "struct UserRegistry.UserProfile",
          "name": "",
          "type": "tuple"
        }
      ],
      "stateMutability": "view",
      "type": "function"
    },
    {
      "inputs": [
        {
          "internalType": "address",
          "name": "_user",
          "type": "address"
        }
      ],
      "name": "getUserBadges",
      "outputs": [
        {
          "components": [
            {
              "internalType": "string",
              "name": "badgeType",
              "type": "string"
            },
            {
              "internalType": "string",
              "name": "issuer",
              "type": "string"
            },
            {
              "internalType": "uint256",
              "name": "issuedAt",
              "type": "uint256"
            },
            {
              "internalType": "string",
              "name": "evidenceHash",
              "type": "string"
            }
          ],
          "internalType": "struct UserRegistry.VerificationBadge[]",
          "name": "",
          "type": "tuple[]"
        }
      ],
      "stateMutability": "view",
      "type": "function"
    },
    {
      "inputs": [
        {
          "internalType": "address",
          "name": "_user",
          "type": "address"
        },
        {
          "internalType": "string",
          "name": "_badgeType",
          "type": "string"
        },
        {
          "internalType": "string",
          "name": "_evidenceHash",
          "type": "string"
        }
      ],
      "name": "issueBadge",
      "outputs": [],
      "stateMutability": "nonpayable",
      "type": "function"
    },
    {
      "inputs": [],
      "name": "owner",
      "outputs": [
        {
          "internalType": "address",
          "name": "",
          "type": "address"
        }
      ],
      "stateMutability": "view",
      "type": "function"
    },
    {
      "inputs": [
        {
          "internalType": "string",
          "name": "_userId",
          "type": "string"
        },
        {
          "internalType": "string",
          "name": "_profileHash",
          "type": "string"
        },
        {
          "internalType": "string",
          "name": "_role",
          "type": "string"
        }
      ],
      "name": "registerUser",
      "outputs": [],
      "stateMutability": "nonpayable",
      "type": "function"
    },
    {
      "inputs": [],
      "name": "renounceOwnership",
      "outputs": [],
      "stateMutability": "nonpayable",
      "type": "function"
    },
    {
      "inputs": [
        {
          "internalType": "address",
          "name": "newOwner",
          "type": "address"
        }
      ],
      "name": "transferOwnership",
      "outputs": [],
      "stateMutability": "nonpayable",
      "type": "function"
    },
    {
      "inputs": [
        {
          "internalType": "string",
          "name": "_newProfileHash",
          "type": "string"
        }
      ],
      "name": "updateProfile",
      "outputs": [],
      "stateMutability": "nonpayable",
      "type": "function"
    },
    {
      "inputs": [
        {
          "internalType": "address",
          "name": "_user",
          "type": "address"
        },
        {
          "internalType": "uint256",
          "name": "_score",
          "type": "uint256"
        }
      ],
      "name": "updateReputation",
      "outputs": [],
      "stateMutability": "nonpayable",
      "type": "function"
    },
    {
      "inputs": [
        {
          "internalType": "address",
          "name": "",
          "type": "address"
        },
        {
          "internalType": "uint256",
          "name": "",
          "type": "uint256"
        }
      ],
      "name": "userBadges",
      "outputs": [
        {
          "internalType": "string",
          "name": "badgeType",
          "type": "string"
        },
        {
          "internalType": "string",
          "name": "issuer",
          "type": "string"
        },
        {
          "internalType": "uint256",
          "name": "issuedAt",
          "type": "uint256"
        },
        {
          "internalType": "string",
          "name": "evidenceHash",
          "type": "string"
        }
      ],
      "stateMutability": "view",
      "type": "function"
    },
    {
      "inputs": [
        {
          "internalType": "string",
          "name": "",
          "type": "string"
        }
      ],
      "name": "userIdToAddress",
      "outputs": [
        {
          "internalType": "address",
          "name": "",
          "type": "address"
        }
      ],
      "stateMutability": "view",
      "type": "function"
    },
    {
      "inputs": [
        {
          "internalType": "address",
          "name": "",
          "type": "address"
        }
      ],
      "name": "users",
      "outputs": [
        {
          "internalType": "string",
          "name": "userId",
          "type": "string"
        },
        {
          "internalType": "string",
          "name": "profileHash",
          "type": "string"
        },
        {
          "internalType": "string",
          "name": "role",
          "type": "string"
        },
        {
          "internalType": "bool",
          "name": "isRegistered",
          "type": "bool"
        },
        {
          "internalType": "uint256",
          "name": "reputationScore",
          "type": "uint256"
        },
        {
          "internalType": "uint256",
          "name": "totalJobs",
          "type": "uint256"
        },
        {
          "internalType": "uint256",
          "name": "verifiedAt",
          "type": "uint256"
        },
        {
          "internalType": "bool",
          "name": "isVerified",
          "type": "bool"
        }
      ],
      "stateMutability": "view",
      "type": "function"
    }
  ],
  "bytecode": "0x6080806040523461007a5733156100645760008054336001600160a01b03198216811783556040519290916001600160a01b0316907f8be0079c531659141344cd1fd0a4f28419497f9722a3daafe3b4186f6b6457e09080a361172190816100808239f35b631e4fbdf760e01b815260006004820152602490fd5b600080fdfe6080604052600436101561001257600080fd5b60003560e01c80629299e3146112a657806337c245fe146111455780636b42cdbe14610e255780636f77926b14610fde578063715018a614610f855780638da5cb5b14610f5c578063a87430ba14610e8d578063c21be6ae14610e25578063d637dcfa14610821578063de2cff03146102b7578063df91cc2314610204578063f2fde38b146101765763f5c91a08146100aa57600080fd5b34610171576040366003190112610171576100c361150d565b602435906100cf61167d565b60018060a01b0316908160005260016020526100f560ff600360406000200154166116a9565b6064811161013c5760207ffc577563f1b9a0461e24abef1e1fcc0d33d3d881f20b5df6dda59de4aae2c82191836000526001825280600460406000200155604051908152a2005b60405162461bcd60e51b815260206004820152600d60248201526c496e76616c69642073636f726560981b6044820152606490fd5b600080fd5b346101715760203660031901126101715761018f61150d565b61019761167d565b6001600160a01b039081169081156101eb57600054826bffffffffffffffffffffffff60a01b821617600055167f8be0079c531659141344cd1fd0a4f28419497f9722a3daafe3b4186f6b6457e0600080a3005b604051631e4fbdf760e01b815260006004820152602490fd5b346101715760403660031901126101715761021d61150d565b6001600160a01b0316600090815260036020526040902080546024359190821015610171576102929161024f9161164b565b506102b361025c826115a5565b91610269600182016115a5565b6102a061027d6003600285015494016115a5565b91604051968796608088526080880190611546565b908682036020880152611546565b9160408501528382036060850152611546565b0390f35b34610171576060366003190112610171576102d061150d565b6024356001600160401b038111610171576102ef9036906004016114b7565b906044356001600160401b0381116101715761030f9036906004016114b7565b9161031861167d565b6001600160a01b0382166000908152600160205260409020600301546103409060ff166116a9565b60018060a01b03821660005260036020526040600020604051936103638561145f565b828552604051604081018181106001600160401b0382111761066857604052600a8152692937bd33b0b0b9243ab160b11b602082015260208601524260408601526060850152805468010000000000000000811015610668576103cb9160018201815561164b565b61080b5783518051906001600160401b0382116106685781906103ee845461156b565b601f81116107bb575b50602090601f831160011461074f57600092610744575b50508160011b916000199060031b1c19161781555b60208401518051906001600160401b03821161066857610446600184015461156b565b601f81116106fd575b50602090601f83116001146106895791806060949260039460009261067e575b505060001982851b1c1916600191821b17908201555b60408601516002820155019301519283516001600160401b038111610668576104ae825461156b565b601f8111610620575b506020601f82116001146105975781907ff99d729de382c6e93a2d2b7f09e9c74ca5f54a0a9d84f90f13aff68d51ef65e0959660009261058c575b50508160011b916000199060031b1c19161790555b6001600160a01b038316600090815260016020526040902060078101805460ff811615610574575b505050604061054681519282845282840190611546565b93692937bd33b0b0b9243ab160b11b6020848703968782870152600a8152015260018060a01b0316930190a2005b60019060ff191617905560064291015583808061052f565b0151905086806104f2565b601f198216958360005260206000209660005b8181106106085750917ff99d729de382c6e93a2d2b7f09e9c74ca5f54a0a9d84f90f13aff68d51ef65e09697918460019594106105ef575b505050811b019055610507565b015160001960f88460031b161c191690558680806105e2565b838301518955600190980197602093840193016105aa565b826000526020600020601f830160051c8101916020841061065e575b601f0160051c01905b81811061065257506104b7565b60008155600101610645565b909150819061063c565b634e487b7160e01b600052604160045260246000fd5b01519050888061046f565b906001840160005260206000209160005b601f19851681106106e55750926060949260019260039583601f198116106106cd575b505050811b016001820155610485565b015160001983871b60f8161c191690558880806106bd565b9192602060018192868501518155019401920161069a565b600184016000526020600020601f840160051c81016020851061073d575b601f830160051c8201811061073157505061044f565b6000815560010161071b565b508061071b565b01519050868061040e565b9250836000526020600020906000935b601f19841685106107a0576001945083601f19811610610787575b505050811b018155610423565b015160001960f88460031b161c1916905586808061077a565b8181015183556020948501946001909301929091019061075f565b909150836000526020600020601f840160051c810160208510610804575b90849392915b601f830160051c820181106107f55750506103f7565b600081558594506001016107df565b50806107d9565b634e487b7160e01b600052600060045260246000fd5b34610171576060366003190112610171576004356001600160401b038111610171576108519036906004016114b7565b6024356001600160401b038111610171576108709036906004016114b7565b906044356001600160401b038111610171576108909036906004016114b7565b9133600052600160205260ff60036040600020015416610de05760405182516108bd818360208701611523565b60029082019081528190036020019020546001600160a01b0316610da257604051906108e88261147a565b82825260208201528260408201526001606082015260006080820152600060a0820152600060c0820152600060e082015233600052600160205260406000209080518051906001600160401b038211610668578190610947855461156b565b601f8111610d52575b50602090601f8311600114610ce657600092610cdb575b50508160011b916000199060031b1c19161782555b60208101518051906001600160401b0382116106685781906109a1600186015461156b565b601f8111610c88575b50602090601f8311600114610c1657600092610c0b575b50508160011b916000199060031b1c19161760018301555b60408101518051906001600160401b038211610668576109fc600285015461156b565b601f8111610bc4575b50602090601f8311600114610b265760e07f92822564bab8864c3a47b34e8d23fbce5c46234eb5da261f94087b995ac0f33b969484610aba95610b079895600795600092610b1b575b50508160011b916000199060031b1c19161760028501555b610a8560608201511515600386019060ff801983541691151516179055565b6080810151600485015560a0810151600585015560c081015160068501550151151591019060ff801983541691151516179055565b6040516020818351610acf8183858801611523565b81016002815203019020336bffffffffffffffffffffffff60a01b825416179055610b16604051928392604084526040840190611546565b82810360208401523395611546565b0390a2005b015190508b80610a4e565b906002850160005260206000209160005b601f1985168110610bac57507f92822564bab8864c3a47b34e8d23fbce5c46234eb5da261f94087b995ac0f33b9694600185610b07989560079560e095610aba99601f19811610610b93575b505050811b016002850155610a66565b015160001960f88460031b161c191690558b8080610b83565b91926020600181928685015181550194019201610b37565b600285016000526020600020601f840160051c810160208510610c04575b601f830160051c82018110610bf8575050610a05565b60008155600101610be2565b5080610be2565b0151905086806109c1565b9250600185016000526020600020906000935b601f1984168510610c6d576001945083601f19811610610c54575b505050811b0160018301556109d9565b015160001960f88460031b161c19169055868080610c44565b81810151835560209485019460019093019290910190610c29565b909150600185016000526020600020601f840160051c810160208510610cd4575b90849392915b601f830160051c82018110610cc55750506109aa565b60008155859450600101610caf565b5080610ca9565b015190508680610967565b9250846000526020600020906000935b601f1984168510610d37576001945083601f19811610610d1e575b505050811b01825561097c565b015160001960f88460031b161c19169055868080610d11565b81810151835560209485019460019093019290910190610cf6565b909150846000526020600020601f840160051c810160208510610d9b575b90849392915b601f830160051c82018110610d8c575050610950565b60008155859450600101610d76565b5080610d70565b60405162461bcd60e51b8152602060048201526016602482015275155cd95c88125108185b1c9958591e481b1a5b9ad95960521b6044820152606490fd5b60405162461bcd60e51b815260206004820152601760248201527f5573657220616c726561647920726567697374657265640000000000000000006044820152606490fd5b34610171576020366003190112610171576004356001600160401b03811161017157610e5760209136906004016114b7565b81610e6b6040519283815193849201611523565b600290820190815281900382019020546040516001600160a01b039091168152f35b34610171576020366003190112610171576001600160a01b03610eae61150d565b166000526001602052610f1e6040600020610ec8816115a5565b90610ed5600182016115a5565b610ee1600283016115a5565b9160ff600382015416926004820154610f3a600584015492610f2c60ff6007600688015497015416966040519a8b9a610100808d528c0190611546565b908a820360208c0152611546565b9088820360408a0152611546565b9415156060870152608086015260a085015260c0840152151560e08301520390f35b34610171576000366003190112610171576000546040516001600160a01b039091168152602090f35b3461017157600036600319011261017157610f9e61167d565b600080546001600160a01b0319811682556001600160a01b03167f8be0079c531659141344cd1fd0a4f28419497f9722a3daafe3b4186f6b6457e08280a3005b34610171576020806003193601126101715761012090610ffc61150d565b906040519161100a8361147a565b600060e0606094858152858582015285604082015282868201528260808201528260a08201528260c0820152015260018060a01b0316600052600181526040600020906040519261105a8461147a565b611063836115a5565b8452611071600184016115a5565b92828501938452611084600282016115a5565b936040860194855260ff60038301541694838701951515865261111f6004840154916080890192835260058501549360a08a0194855260ff600760068801549760c08d019889520154169660e08b01971515885261110f6110f9604051809e819e8d83525191610100809e8201520190611546565b9251601f198d8503810160408f01529390611546565b9251918b840301908b0152611546565b9551151560808801525160a08701525160c08601525160e0850152511515908301520390f35b3461017157602080600319360112610171576001600160a01b0361116761150d565b166000526003808252604060002080546001600160401b03811161066857604051939261119a600583901b850186611496565b81855260009283528383208486019391845b84841061124c57604080518881528951818a01819052600092600582901b83018101918a918c9085015b8287106111e35785850386f35b90919293828061123c600193603f198a8203018652885161121f61120f82516080808652850190611546565b8583015184820387860152611546565b916040820151604082015260608092015191818403910152611546565b96019201960195929190926111d6565b60048760019260409a999a516112618161145f565b61126a876115a5565b81526112778588016115a5565b83820152600287015460408201526112908688016115a5565b60608201528152019301930192919695966111ac565b3461017157602080600319360112610171576001600160401b03600435818111610171576112d89036906004016114b7565b3360005260018084526112f560ff600360406000200154166116a9565b336000528084528060406000200190825193841161066857611317825461156b565b601f8111611416575b5084601f851160011461138f57938080610b169594937fdd635a4cd84864e37e4479dbfc2ec667acfa473c83c8422a8ac9d9d07599b01c97600093611384575b501b916000199060031b1c19161790555b6040519182918583523395830190611546565b860151925089611360565b601f1985169083600052866000209160005b888282106114025750509186917fdd635a4cd84864e37e4479dbfc2ec667acfa473c83c8422a8ac9d9d07599b01c97610b1697969594106113e9575b5050811b019055611371565b85015160001960f88460031b161c1916905587806113dd565b8784015185559385019392830192016113a1565b8260005285600020601f860160051c810191878710611455575b601f0160051c019082905b828110611449575050611320565b6000815501829061143b565b9091508190611430565b608081019081106001600160401b0382111761066857604052565b61010081019081106001600160401b0382111761066857604052565b90601f801991011681019081106001600160401b0382111761066857604052565b81601f82011215610171578035906001600160401b03821161066857604051926114eb601f8401601f191660200185611496565b8284526020838301011161017157816000926020809301838601378301015290565b600435906001600160a01b038216820361017157565b60005b8381106115365750506000910152565b8181015183820152602001611526565b9060209161155f81518092818552858086019101611523565b601f01601f1916010190565b90600182811c9216801561159b575b602083101461158557565b634e487b7160e01b600052602260045260246000fd5b91607f169161157a565b90604051918260008254926115b98461156b565b90818452600194858116908160001461162857506001146115e5575b50506115e392500383611496565b565b9093915060005260209081600020936000915b8183106116105750506115e3935082010138806115d5565b855488840185015294850194879450918301916115f8565b9150506115e394506020925060ff191682840152151560051b82010138806115d5565b80548210156116675760005260206000209060021b0190600090565b634e487b7160e01b600052603260045260246000fd5b6000546001600160a01b0316330361169157565b60405163118cdaa760e01b8152336004820152602490fd5b156116b057565b60405162461bcd60e51b8152602060048201526013602482015272155cd95c881b9bdd081c9959da5cdd195c9959606a1b6044820152606490fdfea2646970667358221220acb068b25845b140701b39cf9083ce0368230917f25b2a264c52c4df6449019a64736f6c63430008140033",
  "linkReferences": {},
  "deployedLinkReferences": {}
}