{"contracts/UserRegistry.sol":{"UserRegistry":{"abi":[{"inputs":[],"stateMutability":"nonpayable","type":"constructor"},{"inputs":[{"internalType":"address","name":"owner","type":"address"}],"name":"OwnableInvalidOwner","type":"error"},{"inputs":[{"internalType":"address","name":"account","type":"address"}],"name":"OwnableUnauthorizedAccount","type":"error"},{"anonymous":false,"inputs":[{"indexed":true,"internalType":"address","name":"wallet","type":"address"},{"indexed":false,"internalType":"string","name":"badgeType","type":"string"},{"indexed":false,"internalType":"string","name":"issuer","type":"string"}],"name":"BadgeIssued","type":"event"},{"anonymous":false,"inputs":[{"indexed":true,"internalType":"address","name":"previousOwner","type":"address"},{"indexed":true,"internalType":"address","name":"newOwner","type":"address"}],"name":"OwnershipTransferred","type":"event"},{"anonymous":false,"inputs":[{"indexed":true,"internalType":"address","name":"wallet","type":"address"},{"indexed":false,"internalType":"string","name":"newProfileHash","type":"string"}],"name":"ProfileUpdated","type":"event"},{"anonymous":false,"inputs":[{"indexed":true,"internalType":"address","name":"wallet","type":"address"},{"indexed":false,"internalType":"uint256","name":"newScore","type":"uint256"}],"name":"ReputationUpdated","type":"event"},{"anonymous":false,"inputs":[{"indexed":true,"internalType":"address","name":"wallet","type":"address"},{"indexed":false,"internalType":"string","name":"userId","type":"string"},{"indexed":false,"internalType":"string","name":"role","type":"string"}],"name":"UserRegistered","type":"event"},{"inputs":[{"internalType":"string","name":"_userId","type":"string"}],"name":"getAddressByUserId","outputs":[{"internalType":"address","name":"","type":"address"}],"stateMutability":"view","type":"function"},{"inputs":[{"internalType":"address","name":"_user","type":"address"}],"name":"getUser","outputs":[{"components":[{"internalType":"string","name":"userId","type":"string"},{"internalType":"string","name":"profileHash","type":"string"},{"internalType":"string","name":"role","type":"string"},{"internalType":"bool","name":"isRegistered","type":"bool"},{"internalType":"uint256","name":"reputationScore","type":"uint256"},{"internalType":"uint256","name":"totalJobs","type":"uint256"},{"internalType":"uint256","name":"verifiedAt","type":"uint256"},{"internalType":"bool","name":"isVerified","type":"bool"}],"internalType":"struct UserRegistry.UserProfile","name":"","type":"tuple"}],"stateMutability":"view","type":"function"},{"inputs":[{"internalType":"address","name":"_user","type":"address"}],"name":"getUserBadges","outputs":[{"components":[{"internalType":"string","name":"badgeType","type":"string"},{"internalType":"string","name":"issuer","type":"string"},{"internalType":"uint256","name":"issuedAt","type":"uint256"},{"internalType":"string","name":"evidenceHash","type":"string"}],"internalType":"struct UserRegistry.VerificationBadge[]","name":"","type":"tuple[]"}],"stateMutability":"view","type":"function"},{"inputs":[{"internalType":"address","name":"_user","type":"address"},{"internalType":"string","name":"_badgeType","type":"string"},{"internalType":"string","name":"_evidenceHash","type":"string"}],"name":"issueBadge","outputs":[],"stateMutability":"nonpayable","type":"function"},{"inputs":[],"name":"owner","outputs":[{"internalType":"address","name":"","type":"address"}],"stateMutability":"view","type":"function"},{"inputs":[{"internalType":"string","name":"_userId","type":"string"},{"internalType":"string","name":"_profileHash","type":"string"},{"internalType":"string","name":"_role","type":"string"}],"name":"registerUser","outputs":[],"stateMutability":"nonpayable","type":"function"},{"inputs":[],"name":"renounceOwnership","outputs":[],"stateMutability":"nonpayable","type":"function"},{"inputs":[{"internalType":"address","name":"newOwner","type":"address"}],"name":"transferOwnership","outputs":[],"stateMutability":"nonpayable","type":"function"},{"inputs":[{"internalType":"string","name":"_newProfileHash","type":"string"}],"name":"updateProfile","outputs":[],"stateMutability":"nonpayable","type":"function"},{"inputs":[{"internalType":"address","name":"_user","type":"address"},{"internalType":"uint256","name":"_score","type":"uint256"}],"name":"updateReputation","outputs":[],"stateMutability":"nonpayable","type":"function"},{"inputs":[{"internalType":"address","name":"","type":"address"},{"internalType":"uint256","name":"","type":"uint256"}],"name":"userBadges","outputs":[{"internalType":"string","name":"badgeType","type":"string"},{"internalType":"string","name":"issuer","type":"string"},{"internalType":"uint256","name":"issuedAt","type":"uint256"},{"internalType":"string","name":"evidenceHash","type":"string"}],"stateMutability":"view","type":"function"},{"inputs":[{"internalType":"string","name":"","type":"string"}],"name":"userIdToAddress","outputs":[{"internalType":"address","name":"","type":"address"}],"stateMutability":"view","type":"function"},{"inputs":[{"internalType":"address","name":"","type":"address"}],"name":"users","outputs":[{"internalType":"string","name":"userId","type":"string"},{"internalType":"string","name":"profileHash","type":"string"},{"internalType":"string","name":"role","type":"string"},{"internalType":"bool","name":"isRegistered","type":"bool"},{"internalType":"uint256","name":"reputationScore","type":"uint256"},{"internalType":"uint256","name":"totalJobs","type":"uint256"},{"internalType":"uint256","name":"verifiedAt","type":"uint256"},{"internalType":"bool","name":"isVerified","type":"bool"}],"stateMutability":"view","type":"function"}],"evm":{"bytecode":{"linkReferences":{},"object":"6080806040523461007a5733156100645760008054336001600160a01b03198216811783556040519290916001600160a01b0316907f8be0079c531659141344cd1fd0a4f28419497f9722a3daafe3b4186f6b6457e09080a361172190816100808239f35b631e4fbdf760e01b815260006004820152602490fd5b600080fdfe6080604052600436101561001257600080fd5b60003560e01c80629299e3146112a657806337c245fe146111455780636b42cdbe14610e255780636f77926b14610fde578063715018a614610f855780638da5cb5b14610f5c578063a87430ba14610e8d578063c21be6ae14610e25578063d637dcfa14610821578063de2cff03146102b7578063df91cc2314610204578063f2fde38b146101765763f5c91a08146100aa57600080fd5b34610171576040366003190112610171576100c361150d565b602435906100cf61167d565b60018060a01b0316908160005260016020526100f560ff600360406000200154166116a9565b6064811161013c5760207ffc577563f1b9a0461e24abef1e1fcc0d33d3d881f20b5df6dda59de4aae2c82191836000526001825280600460406000200155604051908152a2005b60405162461bcd60e51b815260206004820152600d60248201526c496e76616c69642073636f726560981b6044820152606490fd5b600080fd5b346101715760203660031901126101715761018f61150d565b61019761167d565b6001600160a01b039081169081156101eb57600054826bffffffffffffffffffffffff60a01b821617600055167f8be0079c531659141344cd1fd0a4f28419497f9722a3daafe3b4186f6b6457e0600080a3005b604051631e4fbdf760e01b815260006004820152602490fd5b346101715760403660031901126101715761021d61150d565b6001600160a01b0316600090815260036020526040902080546024359190821015610171576102929161024f9161164b565b506102b361025c826115a5565b91610269600182016115a5565b6102a061027d6003600285015494016115a5565b91604051968796608088526080880190611546565b908682036020880152611546565b9160408501528382036060850152611546565b0390f35b34610171576060366003190112610171576102d061150d565b6024356001600160401b038111610171576102ef9036906004016114b7565b906044356001600160401b0381116101715761030f9036906004016114b7565b9161031861167d565b6001600160a01b0382166000908152600160205260409020600301546103409060ff166116a9565b60018060a01b03821660005260036020526040600020604051936103638561145f565b828552604051604081018181106001600160401b0382111761066857604052600a8152692937bd33b0b0b9243ab160b11b602082015260208601524260408601526060850152805468010000000000000000811015610668576103cb9160018201815561164b565b61080b5783518051906001600160401b0382116106685781906103ee845461156b565b601f81116107bb575b50602090601f831160011461074f57600092610744575b50508160011b916000199060031b1c19161781555b60208401518051906001600160401b03821161066857610446600184015461156b565b601f81116106fd575b50602090601f83116001146106895791806060949260039460009261067e575b505060001982851b1c1916600191821b17908201555b60408601516002820155019301519283516001600160401b038111610668576104ae825461156b565b601f8111610620575b506020601f82116001146105975781907ff99d729de382c6e93a2d2b7f09e9c74ca5f54a0a9d84f90f13aff68d51ef65e0959660009261058c575b50508160011b916000199060031b1c19161790555b6001600160a01b038316600090815260016020526040902060078101805460ff811615610574575b505050604061054681519282845282840190611546565b93692937bd33b0b0b9243ab160b11b6020848703968782870152600a8152015260018060a01b0316930190a2005b60019060ff191617905560064291015583808061052f565b0151905086806104f2565b601f198216958360005260206000209660005b8181106106085750917ff99d729de382c6e93a2d2b7f09e9c74ca5f54a0a9d84f90f13aff68d51ef65e09697918460019594106105ef575b505050811b019055610507565b015160001960f88460031b161c191690558680806105e2565b838301518955600190980197602093840193016105aa565b826000526020600020601f830160051c8101916020841061065e575b601f0160051c01905b81811061065257506104b7565b60008155600101610645565b909150819061063c565b634e487b7160e01b600052604160045260246000fd5b01519050888061046f565b906001840160005260206000209160005b601f19851681106106e55750926060949260019260039583601f198116106106cd575b505050811b016001820155610485565b015160001983871b60f8161c191690558880806106bd565b9192602060018192868501518155019401920161069a565b600184016000526020600020601f840160051c81016020851061073d575b601f830160051c8201811061073157505061044f565b6000815560010161071b565b508061071b565b01519050868061040e565b9250836000526020600020906000935b601f19841685106107a0576001945083601f19811610610787575b505050811b018155610423565b015160001960f88460031b161c1916905586808061077a565b8181015183556020948501946001909301929091019061075f565b909150836000526020600020601f840160051c810160208510610804575b90849392915b601f830160051c820181106107f55750506103f7565b600081558594506001016107df565b50806107d9565b634e487b7160e01b600052600060045260246000fd5b34610171576060366003190112610171576004356001600160401b038111610171576108519036906004016114b7565b6024356001600160401b038111610171576108709036906004016114b7565b906044356001600160401b038111610171576108909036906004016114b7565b9133600052600160205260ff60036040600020015416610de05760405182516108bd818360208701611523565b60029082019081528190036020019020546001600160a01b0316610da257604051906108e88261147a565b82825260208201528260408201526001606082015260006080820152600060a0820152600060c0820152600060e082015233600052600160205260406000209080518051906001600160401b038211610668578190610947855461156b565b601f8111610d52575b50602090601f8311600114610ce657600092610cdb575b50508160011b916000199060031b1c19161782555b60208101518051906001600160401b0382116106685781906109a1600186015461156b565b601f8111610c88575b50602090601f8311600114610c1657600092610c0b575b50508160011b916000199060031b1c19161760018301555b60408101518051906001600160401b038211610668576109fc600285015461156b565b601f8111610bc4575b50602090601f8311600114610b265760e07f92822564bab8864c3a47b34e8d23fbce5c46234eb5da261f94087b995ac0f33b969484610aba95610b079895600795600092610b1b575b50508160011b916000199060031b1c19161760028501555b610a8560608201511515600386019060ff801983541691151516179055565b6080810151600485015560a0810151600585015560c081015160068501550151151591019060ff801983541691151516179055565b6040516020818351610acf8183858801611523565b81016002815203019020336bffffffffffffffffffffffff60a01b825416179055610b16604051928392604084526040840190611546565b82810360208401523395611546565b0390a2005b015190508b80610a4e565b906002850160005260206000209160005b601f1985168110610bac57507f92822564bab8864c3a47b34e8d23fbce5c46234eb5da261f94087b995ac0f33b9694600185610b07989560079560e095610aba99601f19811610610b93575b505050811b016002850155610a66565b015160001960f88460031b161c191690558b8080610b83565b91926020600181928685015181550194019201610b37565b600285016000526020600020601f840160051c810160208510610c04575b601f830160051c82018110610bf8575050610a05565b60008155600101610be2565b5080610be2565b0151905086806109c1565b9250600185016000526020600020906000935b601f1984168510610c6d576001945083601f19811610610c54575b505050811b0160018301556109d9565b015160001960f88460031b161c19169055868080610c44565b81810151835560209485019460019093019290910190610c29565b909150600185016000526020600020601f840160051c810160208510610cd4575b90849392915b601f830160051c82018110610cc55750506109aa565b60008155859450600101610caf565b5080610ca9565b015190508680610967565b9250846000526020600020906000935b601f1984168510610d37576001945083601f19811610610d1e575b505050811b01825561097c565b015160001960f88460031b161c19169055868080610d11565b81810151835560209485019460019093019290910190610cf6565b909150846000526020600020601f840160051c810160208510610d9b575b90849392915b601f830160051c82018110610d8c575050610950565b60008155859450600101610d76565b5080610d70565b60405162461bcd60e51b8152602060048201526016602482015275155cd95c88125108185b1c9958591e481b1a5b9ad95960521b6044820152606490fd5b60405162461bcd60e51b815260206004820152601760248201527f5573657220616c726561647920726567697374657265640000000000000000006044820152606490fd5b34610171576020366003190112610171576004356001600160401b03811161017157610e5760209136906004016114b7565b81610e6b6040519283815193849201611523565b600290820190815281900382019020546040516001600160a01b039091168152f35b34610171576020366003190112610171576001600160a01b03610eae61150d565b166000526001602052610f1e6040600020610ec8816115a5565b90610ed5600182016115a5565b610ee1600283016115a5565b9160ff600382015416926004820154610f3a600584015492610f2c60ff6007600688015497015416966040519a8b9a610100808d528c0190611546565b908a820360208c0152611546565b9088820360408a0152611546565b9415156060870152608086015260a085015260c0840152151560e08301520390f35b34610171576000366003190112610171576000546040516001600160a01b039091168152602090f35b3461017157600036600319011261017157610f9e61167d565b600080546001600160a01b0319811682556001600160a01b03167f8be0079c531659141344cd1fd0a4f28419497f9722a3daafe3b4186f6b6457e08280a3005b34610171576020806003193601126101715761012090610ffc61150d565b906040519161100a8361147a565b600060e0606094858152858582015285604082015282868201528260808201528260a08201528260c0820152015260018060a01b0316600052600181526040600020906040519261105a8461147a565b611063836115a5565b8452611071600184016115a5565b92828501938452611084600282016115a5565b936040860194855260ff60038301541694838701951515865261111f6004840154916080890192835260058501549360a08a0194855260ff600760068801549760c08d019889520154169660e08b01971515885261110f6110f9604051809e819e8d83525191610100809e8201520190611546565b9251601f198d8503810160408f01529390611546565b9251918b840301908b0152611546565b9551151560808801525160a08701525160c08601525160e0850152511515908301520390f35b3461017157602080600319360112610171576001600160a01b0361116761150d565b166000526003808252604060002080546001600160401b03811161066857604051939261119a600583901b850186611496565b81855260009283528383208486019391845b84841061124c57604080518881528951818a01819052600092600582901b83018101918a918c9085015b8287106111e35785850386f35b90919293828061123c600193603f198a8203018652885161121f61120f82516080808652850190611546565b8583015184820387860152611546565b916040820151604082015260608092015191818403910152611546565b96019201960195929190926111d6565b60048760019260409a999a516112618161145f565b61126a876115a5565b81526112778588016115a5565b83820152600287015460408201526112908688016115a5565b60608201528152019301930192919695966111ac565b3461017157602080600319360112610171576001600160401b03600435818111610171576112d89036906004016114b7565b3360005260018084526112f560ff600360406000200154166116a9565b336000528084528060406000200190825193841161066857611317825461156b565b601f8111611416575b5084601f851160011461138f57938080610b169594937fdd635a4cd84864e37e4479dbfc2ec667acfa473c83c8422a8ac9d9d07599b01c97600093611384575b501b916000199060031b1c19161790555b6040519182918583523395830190611546565b860151925089611360565b601f1985169083600052866000209160005b888282106114025750509186917fdd635a4cd84864e37e4479dbfc2ec667acfa473c83c8422a8ac9d9d07599b01c97610b1697969594106113e9575b5050811b019055611371565b85015160001960f88460031b161c1916905587806113dd565b8784015185559385019392830192016113a1565b8260005285600020601f860160051c810191878710611455575b601f0160051c019082905b828110611449575050611320565b6000815501829061143b565b9091508190611430565b608081019081106001600160401b0382111761066857604052565b61010081019081106001600160401b0382111761066857604052565b90601f801991011681019081106001600160401b0382111761066857604052565b81601f82011215610171578035906001600160401b03821161066857604051926114eb601f8401601f191660200185611496565b8284526020838301011161017157816000926020809301838601378301015290565b600435906001600160a01b038216820361017157565b60005b8381106115365750506000910152565b8181015183820152602001611526565b9060209161155f81518092818552858086019101611523565b601f01601f1916010190565b90600182811c9216801561159b575b602083101461158557565b634e487b7160e01b600052602260045260246000fd5b91607f169161157a565b90604051918260008254926115b98461156b565b90818452600194858116908160001461162857506001146115e5575b50506115e392500383611496565b565b9093915060005260209081600020936000915b8183106116105750506115e3935082010138806115d5565b855488840185015294850194879450918301916115f8565b9150506115e394506020925060ff191682840152151560051b82010138806115d5565b80548210156116675760005260206000209060021b0190600090565b634e487b7160e01b600052603260045260246000fd5b6000546001600160a01b0316330361169157565b60405163118cdaa760e01b8152336004820152602490fd5b156116b057565b60405162461bcd60e51b8152602060048201526013602482015272155cd95c881b9bdd081c9959da5cdd195c9959606a1b6044820152606490fdfea2646970667358221220acb068b25845b140701b39cf9083ce0368230917f25b2a264c52c4df6449019a64736f6c63430008140033","opcodes":"PUSH1 0x80 DUP1 PUSH1 0x40 MSTORE CALLVALUE PUSH2 0x7A JUMPI CALLER ISZERO PUSH2 0x64 JUMPI PUSH1 0x0 DUP1 SLOAD CALLER PUSH1 0x1 PUSH1 0x1 PUSH1 0xA0 SHL SUB NOT DUP3 AND DUP2 OR DUP4 SSTORE PUSH1 0x40 MLOAD SWAP3 SWAP1 SWAP2 PUSH1 0x1 PUSH1 0x1 PUSH1 0xA0 SHL SUB AND SWAP1 PUSH32 0x8BE0079C531659141344CD1FD0A4F28419497F9722A3DAAFE3B4186F6B6457E0 SWAP1 DUP1 LOG3 PUSH2 0x1721 SWAP1 DUP2 PUSH2 0x80 DUP3 CODECOPY RETURN JUMPDEST PUSH4 0x1E4FBDF7 PUSH1 0xE0 SHL DUP2 MSTORE PUSH1 0x0 PUSH1 0x4 DUP3 ADD MSTORE PUSH1 0x24 SWAP1 REVERT JUMPDEST PUSH1 0x0 DUP1 REVERT INVALID PUSH1 0x80 PUSH1 0x40 MSTORE PUSH1 0x4 CALLDATASIZE LT ISZERO PUSH2 0x12 JUMPI PUSH1 0x0 DUP1 REVERT JUMPDEST PUSH1 0x0 CALLDATALOAD PUSH1 0xE0 SHR DUP1 PUSH3 0x9299E3 EQ PUSH2 0x12A6 JUMPI DUP1 PUSH4 0x37C245FE EQ PUSH2 0x1145 JUMPI DUP1 PUSH4 0x6B42CDBE EQ PUSH2 0xE25 JUMPI DUP1 PUSH4 0x6F77926B EQ PUSH2 0xFDE JUMPI DUP1 PUSH4 0x715018A6 EQ PUSH2 0xF85 JUMPI DUP1 PUSH4 0x8DA5CB5B EQ PUSH2 0xF5C JUMPI DUP1 PUSH4 0xA87430BA EQ PUSH2 0xE8D JUMPI DUP1 PUSH4 0xC21BE6AE EQ PUSH2 0xE25 JUMPI DUP1 PUSH4 0xD637DCFA EQ PUSH2 0x821 JUMPI DUP1 PUSH4 0xDE2CFF03 EQ PUSH2 0x2B7 JUMPI DUP1 PUSH4 0xDF91CC23 EQ PUSH2 0x204 JUMPI DUP1 PUSH4 0xF2FDE38B EQ PUSH2 0x176 JUMPI PUSH4 0xF5C91A08 EQ PUSH2 0xAA JUMPI PUSH1 0x0 DUP1 REVERT JUMPDEST CALLVALUE PUSH2 0x171 JUMPI PUSH1 0x40 CALLDATASIZE PUSH1 0x3 NOT ADD SLT PUSH2 0x171 JUMPI PUSH2 0xC3 PUSH2 0x150D JUMP JUMPDEST PUSH1 0x24 CALLDATALOAD SWAP1 PUSH2 0xCF PUSH2 0x167D JUMP JUMPDEST PUSH1 0x1 DUP1 PUSH1 0xA0 SHL SUB AND SWAP1 DUP2 PUSH1 0x0 MSTORE PUSH1 0x1 PUSH1 0x20 MSTORE PUSH2 0xF5 PUSH1 0xFF PUSH1 0x3 PUSH1 0x40 PUSH1 0x0 KECCAK256 ADD SLOAD AND PUSH2 0x16A9 JUMP JUMPDEST PUSH1 0x64 DUP2 GT PUSH2 0x13C JUMPI PUSH1 0x20 PUSH32 0xFC577563F1B9A0461E24ABEF1E1FCC0D33D3D881F20B5DF6DDA59DE4AAE2C821 SWAP2 DUP4 PUSH1 0x0 MSTORE PUSH1 0x1 DUP3 MSTORE DUP1 PUSH1 0x4 PUSH1 0x40 PUSH1 0x0 KECCAK256 ADD SSTORE PUSH1 0x40 MLOAD SWAP1 DUP2 MSTORE LOG2 STOP JUMPDEST PUSH1 0x40 MLOAD PUSH3 0x461BCD PUSH1 0xE5 SHL DUP2 MSTORE PUSH1 0x20 PUSH1 0x4 DUP3 ADD MSTORE PUSH1 0xD PUSH1 0x24 DUP3 ADD MSTORE PUSH13 0x496E76616C69642073636F7265 PUSH1 0x98 SHL PUSH1 0x44 DUP3 ADD MSTORE PUSH1 0x64 SWAP1 REVERT JUMPDEST PUSH1 0x0 DUP1 REVERT JUMPDEST CALLVALUE PUSH2 0x171 JUMPI PUSH1 0x20 CALLDATASIZE PUSH1 0x3 NOT ADD SLT PUSH2 0x171 JUMPI PUSH2 0x18F PUSH2 0x150D JUMP JUMPDEST PUSH2 0x197 PUSH2 0x167D JUMP JUMPDEST PUSH1 0x1 PUSH1 0x1 PUSH1 0xA0 SHL SUB SWAP1 DUP2 AND SWAP1 DUP2 ISZERO PUSH2 0x1EB JUMPI PUSH1 0x0 SLOAD DUP3 PUSH12 0xFFFFFFFFFFFFFFFFFFFFFFFF PUSH1 0xA0 SHL DUP3 AND OR PUSH1 0x0 SSTORE AND PUSH32 0x8BE0079C531659141344CD1FD0A4F28419497F9722A3DAAFE3B4186F6B6457E0 PUSH1 0x0 DUP1 LOG3 STOP JUMPDEST PUSH1 0x40 MLOAD PUSH4 0x1E4FBDF7 PUSH1 0xE0 SHL DUP2 MSTORE PUSH1 0x0 PUSH1 0x4 DUP3 ADD MSTORE PUSH1 0x24 SWAP1 REVERT JUMPDEST CALLVALUE PUSH2 0x171 JUMPI PUSH1 0x40 CALLDATASIZE PUSH1 0x3 NOT ADD SLT PUSH2 0x171 JUMPI PUSH2 0x21D PUSH2 0x150D JUMP JUMPDEST PUSH1 0x1 PUSH1 0x1 PUSH1 0xA0 SHL SUB AND PUSH1 0x0 SWAP1 DUP2 MSTORE PUSH1 0x3 PUSH1 0x20 MSTORE PUSH1 0x40 SWAP1 KECCAK256 DUP1 SLOAD PUSH1 0x24 CALLDATALOAD SWAP2 SWAP1 DUP3 LT ISZERO PUSH2 0x171 JUMPI PUSH2 0x292 SWAP2 PUSH2 0x24F SWAP2 PUSH2 0x164B JUMP JUMPDEST POP PUSH2 0x2B3 PUSH2 0x25C DUP3 PUSH2 0x15A5 JUMP JUMPDEST SWAP2 PUSH2 0x269 PUSH1 0x1 DUP3 ADD PUSH2 0x15A5 JUMP JUMPDEST PUSH2 0x2A0 PUSH2 0x27D PUSH1 0x3 PUSH1 0x2 DUP6 ADD SLOAD SWAP5 ADD PUSH2 0x15A5 JUMP JUMPDEST SWAP2 PUSH1 0x40 MLOAD SWAP7 DUP8 SWAP7 PUSH1 0x80 DUP9 MSTORE PUSH1 0x80 DUP9 ADD SWAP1 PUSH2 0x1546 JUMP JUMPDEST SWAP1 DUP7 DUP3 SUB PUSH1 0x20 DUP9 ADD MSTORE PUSH2 0x1546 JUMP JUMPDEST SWAP2 PUSH1 0x40 DUP6 ADD MSTORE DUP4 DUP3 SUB PUSH1 0x60 DUP6 ADD MSTORE PUSH2 0x1546 JUMP JUMPDEST SUB SWAP1 RETURN JUMPDEST CALLVALUE PUSH2 0x171 JUMPI PUSH1 0x60 CALLDATASIZE PUSH1 0x3 NOT ADD SLT PUSH2 0x171 JUMPI PUSH2 0x2D0 PUSH2 0x150D JUMP JUMPDEST PUSH1 0x24 CALLDATALOAD PUSH1 0x1 PUSH1 0x1 PUSH1 0x40 SHL SUB DUP2 GT PUSH2 0x171 JUMPI PUSH2 0x2EF SWAP1 CALLDATASIZE SWAP1 PUSH1 0x4 ADD PUSH2 0x14B7 JUMP JUMPDEST SWAP1 PUSH1 0x44 CALLDATALOAD PUSH1 0x1 PUSH1 0x1 PUSH1 0x40 SHL SUB DUP2 GT PUSH2 0x171 JUMPI PUSH2 0x30F SWAP1 CALLDATASIZE SWAP1 PUSH1 0x4 ADD PUSH2 0x14B7 JUMP JUMPDEST SWAP2 PUSH2 0x318 PUSH2 0x167D JUMP JUMPDEST PUSH1 0x1 PUSH1 0x1 PUSH1 0xA0 SHL SUB DUP3 AND PUSH1 0x0 SWAP1 DUP2 MSTORE PUSH1 0x1 PUSH1 0x20 MSTORE PUSH1 0x40 SWAP1 KECCAK256 PUSH1 0x3 ADD SLOAD PUSH2 0x340 SWAP1 PUSH1 0xFF AND PUSH2 0x16A9 JUMP JUMPDEST PUSH1 0x1 DUP1 PUSH1 0xA0 SHL SUB DUP3 AND PUSH1 0x0 MSTORE PUSH1 0x3 PUSH1 0x20 MSTORE PUSH1 0x40 PUSH1 0x0 KECCAK256 PUSH1 0x40 MLOAD SWAP4 PUSH2 0x363 DUP6 PUSH2 0x145F JUMP JUMPDEST DUP3 DUP6 MSTORE PUSH1 0x40 MLOAD PUSH1 0x40 DUP2 ADD DUP2 DUP2 LT PUSH1 0x1 PUSH1 0x1 PUSH1 0x40 SHL SUB DUP3 GT OR PUSH2 0x668 JUMPI PUSH1 0x40 MSTORE PUSH1 0xA DUP2 MSTORE PUSH10 0x2937BD33B0B0B9243AB1 PUSH1 0xB1 SHL PUSH1 0x20 DUP3 ADD MSTORE PUSH1 0x20 DUP7 ADD MSTORE TIMESTAMP PUSH1 0x40 DUP7 ADD MSTORE PUSH1 0x60 DUP6 ADD MSTORE DUP1 SLOAD PUSH9 0x10000000000000000 DUP2 LT ISZERO PUSH2 0x668 JUMPI PUSH2 0x3CB SWAP2 PUSH1 0x1 DUP3 ADD DUP2 SSTORE PUSH2 0x164B JUMP JUMPDEST PUSH2 0x80B JUMPI DUP4 MLOAD DUP1 MLOAD SWAP1 PUSH1 0x1 PUSH1 0x1 PUSH1 0x40 SHL SUB DUP3 GT PUSH2 0x668 JUMPI DUP2 SWAP1 PUSH2 0x3EE DUP5 SLOAD PUSH2 0x156B JUMP JUMPDEST PUSH1 0x1F DUP2 GT PUSH2 0x7BB JUMPI JUMPDEST POP PUSH1 0x20 SWAP1 PUSH1 0x1F DUP4 GT PUSH1 0x1 EQ PUSH2 0x74F JUMPI PUSH1 0x0 SWAP3 PUSH2 0x744 JUMPI JUMPDEST POP POP DUP2 PUSH1 0x1 SHL SWAP2 PUSH1 0x0 NOT SWAP1 PUSH1 0x3 SHL SHR NOT AND OR DUP2 SSTORE JUMPDEST PUSH1 0x20 DUP5 ADD MLOAD DUP1 MLOAD SWAP1 PUSH1 0x1 PUSH1 0x1 PUSH1 0x40 SHL SUB DUP3 GT PUSH2 0x668 JUMPI PUSH2 0x446 PUSH1 0x1 DUP5 ADD SLOAD PUSH2 0x156B JUMP JUMPDEST PUSH1 0x1F DUP2 GT PUSH2 0x6FD JUMPI JUMPDEST POP PUSH1 0x20 SWAP1 PUSH1 0x1F DUP4 GT PUSH1 0x1 EQ PUSH2 0x689 JUMPI SWAP2 DUP1 PUSH1 0x60 SWAP5 SWAP3 PUSH1 0x3 SWAP5 PUSH1 0x0 SWAP3 PUSH2 0x67E JUMPI JUMPDEST POP POP PUSH1 0x0 NOT DUP3 DUP6 SHL SHR NOT AND PUSH1 0x1 SWAP2 DUP3 SHL OR SWAP1 DUP3 ADD SSTORE JUMPDEST PUSH1 0x40 DUP7 ADD MLOAD PUSH1 0x2 DUP3 ADD SSTORE ADD SWAP4 ADD MLOAD SWAP3 DUP4 MLOAD PUSH1 0x1 PUSH1 0x1 PUSH1 0x40 SHL SUB DUP2 GT PUSH2 0x668 JUMPI PUSH2 0x4AE DUP3 SLOAD PUSH2 0x156B JUMP JUMPDEST PUSH1 0x1F DUP2 GT PUSH2 0x620 JUMPI JUMPDEST POP PUSH1 0x20 PUSH1 0x1F DUP3 GT PUSH1 0x1 EQ PUSH2 0x597 JUMPI DUP2 SWAP1 PUSH32 0xF99D729DE382C6E93A2D2B7F09E9C74CA5F54A0A9D84F90F13AFF68D51EF65E0 SWAP6 SWAP7 PUSH1 0x0 SWAP3 PUSH2 0x58C JUMPI JUMPDEST POP POP DUP2 PUSH1 0x1 SHL SWAP2 PUSH1 0x0 NOT SWAP1 PUSH1 0x3 SHL SHR NOT AND OR SWAP1 SSTORE JUMPDEST PUSH1 0x1 PUSH1 0x1 PUSH1 0xA0 SHL SUB DUP4 AND PUSH1 0x0 SWAP1 DUP2 MSTORE PUSH1 0x1 PUSH1 0x20 MSTORE PUSH1 0x40 SWAP1 KECCAK256 PUSH1 0x7 DUP2 ADD DUP1 SLOAD PUSH1 0xFF DUP2 AND ISZERO PUSH2 0x574 JUMPI JUMPDEST POP POP POP PUSH1 0x40 PUSH2 0x546 DUP2 MLOAD SWAP3 DUP3 DUP5 MSTORE DUP3 DUP5 ADD SWAP1 PUSH2 0x1546 JUMP JUMPDEST SWAP4 PUSH10 0x2937BD33B0B0B9243AB1 PUSH1 0xB1 SHL PUSH1 0x20 DUP5 DUP8 SUB SWAP7 DUP8 DUP3 DUP8 ADD MSTORE PUSH1 0xA DUP2 MSTORE ADD MSTORE PUSH1 0x1 DUP1 PUSH1 0xA0 SHL SUB AND SWAP4 ADD SWAP1 LOG2 STOP JUMPDEST PUSH1 0x1 SWAP1 PUSH1 0xFF NOT AND OR SWAP1 SSTORE PUSH1 0x6 TIMESTAMP SWAP2 ADD SSTORE DUP4 DUP1 DUP1 PUSH2 0x52F JUMP JUMPDEST ADD MLOAD SWAP1 POP DUP7 DUP1 PUSH2 0x4F2 JUMP JUMPDEST PUSH1 0x1F NOT DUP3 AND SWAP6 DUP4 PUSH1 0x0 MSTORE PUSH1 0x20 PUSH1 0x0 KECCAK256 SWAP7 PUSH1 0x0 JUMPDEST DUP2 DUP2 LT PUSH2 0x608 JUMPI POP SWAP2 PUSH32 0xF99D729DE382C6E93A2D2B7F09E9C74CA5F54A0A9D84F90F13AFF68D51EF65E0 SWAP7 SWAP8 SWAP2 DUP5 PUSH1 0x1 SWAP6 SWAP5 LT PUSH2 0x5EF JUMPI JUMPDEST POP POP POP DUP2 SHL ADD SWAP1 SSTORE PUSH2 0x507 JUMP JUMPDEST ADD MLOAD PUSH1 0x0 NOT PUSH1 0xF8 DUP5 PUSH1 0x3 SHL AND SHR NOT AND SWAP1 SSTORE DUP7 DUP1 DUP1 PUSH2 0x5E2 JUMP JUMPDEST DUP4 DUP4 ADD MLOAD DUP10 SSTORE PUSH1 0x1 SWAP1 SWAP9 ADD SWAP8 PUSH1 0x20 SWAP4 DUP5 ADD SWAP4 ADD PUSH2 0x5AA JUMP JUMPDEST DUP3 PUSH1 0x0 MSTORE PUSH1 0x20 PUSH1 0x0 KECCAK256 PUSH1 0x1F DUP4 ADD PUSH1 0x5 SHR DUP2 ADD SWAP2 PUSH1 0x20 DUP5 LT PUSH2 0x65E JUMPI JUMPDEST PUSH1 0x1F ADD PUSH1 0x5 SHR ADD SWAP1 JUMPDEST DUP2 DUP2 LT PUSH2 0x652 JUMPI POP PUSH2 0x4B7 JUMP JUMPDEST PUSH1 0x0 DUP2 SSTORE PUSH1 0x1 ADD PUSH2 0x645 JUMP JUMPDEST SWAP1 SWAP2 POP DUP2 SWAP1 PUSH2 0x63C JUMP JUMPDEST PUSH4 0x4E487B71 PUSH1 0xE0 SHL PUSH1 0x0 MSTORE PUSH1 0x41 PUSH1 0x4 MSTORE PUSH1 0x24 PUSH1 0x0 REVERT JUMPDEST ADD MLOAD SWAP1 POP DUP9 DUP1 PUSH2 0x46F JUMP JUMPDEST SWAP1 PUSH1 0x1 DUP5 ADD PUSH1 0x0 MSTORE PUSH1 0x20 PUSH1 0x0 KECCAK256 SWAP2 PUSH1 0x0 JUMPDEST PUSH1 0x1F NOT DUP6 AND DUP2 LT PUSH2 0x6E5 JUMPI POP SWAP3 PUSH1 0x60 SWAP5 SWAP3 PUSH1 0x1 SWAP3 PUSH1 0x3 SWAP6 DUP4 PUSH1 0x1F NOT DUP2 AND LT PUSH2 0x6CD JUMPI JUMPDEST POP POP POP DUP2 SHL ADD PUSH1 0x1 DUP3 ADD SSTORE PUSH2 0x485 JUMP JUMPDEST ADD MLOAD PUSH1 0x0 NOT DUP4 DUP8 SHL PUSH1 0xF8 AND SHR NOT AND SWAP1 SSTORE DUP9 DUP1 DUP1 PUSH2 0x6BD JUMP JUMPDEST SWAP2 SWAP3 PUSH1 0x20 PUSH1 0x1 DUP2 SWAP3 DUP7 DUP6 ADD MLOAD DUP2 SSTORE ADD SWAP5 ADD SWAP3 ADD PUSH2 0x69A JUMP JUMPDEST PUSH1 0x1 DUP5 ADD PUSH1 0x0 MSTORE PUSH1 0x20 PUSH1 0x0 KECCAK256 PUSH1 0x1F DUP5 ADD PUSH1 0x5 SHR DUP2 ADD PUSH1 0x20 DUP6 LT PUSH2 0x73D JUMPI JUMPDEST PUSH1 0x1F DUP4 ADD PUSH1 0x5 SHR DUP3 ADD DUP2 LT PUSH2 0x731 JUMPI POP POP PUSH2 0x44F JUMP JUMPDEST PUSH1 0x0 DUP2 SSTORE PUSH1 0x1 ADD PUSH2 0x71B JUMP JUMPDEST POP DUP1 PUSH2 0x71B JUMP JUMPDEST ADD MLOAD SWAP1 POP DUP7 DUP1 PUSH2 0x40E JUMP JUMPDEST SWAP3 POP DUP4 PUSH1 0x0 MSTORE PUSH1 0x20 PUSH1 0x0 KECCAK256 SWAP1 PUSH1 0x0 SWAP4 JUMPDEST PUSH1 0x1F NOT DUP5 AND DUP6 LT PUSH2 0x7A0 JUMPI PUSH1 0x1 SWAP5 POP DUP4 PUSH1 0x1F NOT DUP2 AND LT PUSH2 0x787 JUMPI JUMPDEST POP POP POP DUP2 SHL ADD DUP2 SSTORE PUSH2 0x423 JUMP JUMPDEST ADD MLOAD PUSH1 0x0 NOT PUSH1 0xF8 DUP5 PUSH1 0x3 SHL AND SHR NOT AND SWAP1 SSTORE DUP7 DUP1 DUP1 PUSH2 0x77A JUMP JUMPDEST DUP2 DUP2 ADD MLOAD DUP4 SSTORE PUSH1 0x20 SWAP5 DUP6 ADD SWAP5 PUSH1 0x1 SWAP1 SWAP4 ADD SWAP3 SWAP1 SWAP2 ADD SWAP1 PUSH2 0x75F JUMP JUMPDEST SWAP1 SWAP2 POP DUP4 PUSH1 0x0 MSTORE PUSH1 0x20 PUSH1 0x0 KECCAK256 PUSH1 0x1F DUP5 ADD PUSH1 0x5 SHR DUP2 ADD PUSH1 0x20 DUP6 LT PUSH2 0x804 JUMPI JUMPDEST SWAP1 DUP5 SWAP4 SWAP3 SWAP2 JUMPDEST PUSH1 0x1F DUP4 ADD PUSH1 0x5 SHR DUP3 ADD DUP2 LT PUSH2 0x7F5 JUMPI POP POP PUSH2 0x3F7 JUMP JUMPDEST PUSH1 0x0 DUP2 SSTORE DUP6 SWAP5 POP PUSH1 0x1 ADD PUSH2 0x7DF JUMP JUMPDEST POP DUP1 PUSH2 0x7D9 JUMP JUMPDEST PUSH4 0x4E487B71 PUSH1 0xE0 SHL PUSH1 0x0 MSTORE PUSH1 0x0 PUSH1 0x4 MSTORE PUSH1 0x24 PUSH1 0x0 REVERT JUMPDEST CALLVALUE PUSH2 0x171 JUMPI PUSH1 0x60 CALLDATASIZE PUSH1 0x3 NOT ADD SLT PUSH2 0x171 JUMPI PUSH1 0x4 CALLDATALOAD PUSH1 0x1 PUSH1 0x1 PUSH1 0x40 SHL SUB DUP2 GT PUSH2 0x171 JUMPI PUSH2 0x851 SWAP1 CALLDATASIZE SWAP1 PUSH1 0x4 ADD PUSH2 0x14B7 JUMP JUMPDEST PUSH1 0x24 CALLDATALOAD PUSH1 0x1 PUSH1 0x1 PUSH1 0x40 SHL SUB DUP2 GT PUSH2 0x171 JUMPI PUSH2 0x870 SWAP1 CALLDATASIZE SWAP1 PUSH1 0x4 ADD PUSH2 0x14B7 JUMP JUMPDEST SWAP1 PUSH1 0x44 CALLDATALOAD PUSH1 0x1 PUSH1 0x1 PUSH1 0x40 SHL SUB DUP2 GT PUSH2 0x171 JUMPI PUSH2 0x890 SWAP1 CALLDATASIZE SWAP1 PUSH1 0x4 ADD PUSH2 0x14B7 JUMP JUMPDEST SWAP2 CALLER PUSH1 0x0 MSTORE PUSH1 0x1 PUSH1 0x20 MSTORE PUSH1 0xFF PUSH1 0x3 PUSH1 0x40 PUSH1 0x0 KECCAK256 ADD SLOAD AND PUSH2 0xDE0 JUMPI PUSH1 0x40 MLOAD DUP3 MLOAD PUSH2 0x8BD DUP2 DUP4 PUSH1 0x20 DUP8 ADD PUSH2 0x1523 JUMP JUMPDEST PUSH1 0x2 SWAP1 DUP3 ADD SWAP1 DUP2 MSTORE DUP2 SWAP1 SUB PUSH1 0x20 ADD SWAP1 KECCAK256 SLOAD PUSH1 0x1 PUSH1 0x1 PUSH1 0xA0 SHL SUB AND PUSH2 0xDA2 JUMPI PUSH1 0x40 MLOAD SWAP1 PUSH2 0x8E8 DUP3 PUSH2 0x147A JUMP JUMPDEST DUP3 DUP3 MSTORE PUSH1 0x20 DUP3 ADD MSTORE DUP3 PUSH1 0x40 DUP3 ADD MSTORE PUSH1 0x1 PUSH1 0x60 DUP3 ADD MSTORE PUSH1 0x0 PUSH1 0x80 DUP3 ADD MSTORE PUSH1 0x0 PUSH1 0xA0 DUP3 ADD MSTORE PUSH1 0x0 PUSH1 0xC0 DUP3 ADD MSTORE PUSH1 0x0 PUSH1 0xE0 DUP3 ADD MSTORE CALLER PUSH1 0x0 MSTORE PUSH1 0x1 PUSH1 0x20 MSTORE PUSH1 0x40 PUSH1 0x0 KECCAK256 SWAP1 DUP1 MLOAD DUP1 MLOAD SWAP1 PUSH1 0x1 PUSH1 0x1 PUSH1 0x40 SHL SUB DUP3 GT PUSH2 0x668 JUMPI DUP2 SWAP1 PUSH2 0x947 DUP6 SLOAD PUSH2 0x156B JUMP JUMPDEST PUSH1 0x1F DUP2 GT PUSH2 0xD52 JUMPI JUMPDEST POP PUSH1 0x20 SWAP1 PUSH1 0x1F DUP4 GT PUSH1 0x1 EQ PUSH2 0xCE6 JUMPI PUSH1 0x0 SWAP3 PUSH2 0xCDB JUMPI JUMPDEST POP POP DUP2 PUSH1 0x1 SHL SWAP2 PUSH1 0x0 NOT SWAP1 PUSH1 0x3 SHL SHR NOT AND OR DUP3 SSTORE JUMPDEST PUSH1 0x20 DUP2 ADD MLOAD DUP1 MLOAD SWAP1 PUSH1 0x1 PUSH1 0x1 PUSH1 0x40 SHL SUB DUP3 GT PUSH2 0x668 JUMPI DUP2 SWAP1 PUSH2 0x9A1 PUSH1 0x1 DUP7 ADD SLOAD PUSH2 0x156B JUMP JUMPDEST PUSH1 0x1F DUP2 GT PUSH2 0xC88 JUMPI JUMPDEST POP PUSH1 0x20 SWAP1 PUSH1 0x1F DUP4 GT PUSH1 0x1 EQ PUSH2 0xC16 JUMPI PUSH1 0x0 SWAP3 PUSH2 0xC0B JUMPI JUMPDEST POP POP DUP2 PUSH1 0x1 SHL SWAP2 PUSH1 0x0 NOT SWAP1 PUSH1 0x3 SHL SHR NOT AND OR PUSH1 0x1 DUP4 ADD SSTORE JUMPDEST PUSH1 0x40 DUP2 ADD MLOAD DUP1 MLOAD SWAP1 PUSH1 0x1 PUSH1 0x1 PUSH1 0x40 SHL SUB DUP3 GT PUSH2 0x668 JUMPI PUSH2 0x9FC PUSH1 0x2 DUP6 ADD SLOAD PUSH2 0x156B JUMP JUMPDEST PUSH1 0x1F DUP2 GT PUSH2 0xBC4 JUMPI JUMPDEST POP PUSH1 0x20 SWAP1 PUSH1 0x1F DUP4 GT PUSH1 0x1 EQ PUSH2 0xB26 JUMPI PUSH1 0xE0 PUSH32 0x92822564BAB8864C3A47B34E8D23FBCE5C46234EB5DA261F94087B995AC0F33B SWAP7 SWAP5 DUP5 PUSH2 0xABA SWAP6 PUSH2 0xB07 SWAP9 SWAP6 PUSH1 0x7 SWAP6 PUSH1 0x0 SWAP3 PUSH2 0xB1B JUMPI JUMPDEST POP POP DUP2 PUSH1 0x1 SHL SWAP2 PUSH1 0x0 NOT SWAP1 PUSH1 0x3 SHL SHR NOT AND OR PUSH1 0x2 DUP6 ADD SSTORE JUMPDEST PUSH2 0xA85 PUSH1 0x60 DUP3 ADD MLOAD ISZERO ISZERO PUSH1 0x3 DUP7 ADD SWAP1 PUSH1 0xFF DUP1 NOT DUP4 SLOAD AND SWAP2 ISZERO ISZERO AND OR SWAP1 SSTORE JUMP JUMPDEST PUSH1 0x80 DUP2 ADD MLOAD PUSH1 0x4 DUP6 ADD SSTORE PUSH1 0xA0 DUP2 ADD MLOAD PUSH1 0x5 DUP6 ADD SSTORE PUSH1 0xC0 DUP2 ADD MLOAD PUSH1 0x6 DUP6 ADD SSTORE ADD MLOAD ISZERO ISZERO SWAP2 ADD SWAP1 PUSH1 0xFF DUP1 NOT DUP4 SLOAD AND SWAP2 ISZERO ISZERO AND OR SWAP1 SSTORE JUMP JUMPDEST PUSH1 0x40 MLOAD PUSH1 0x20 DUP2 DUP4 MLOAD PUSH2 0xACF DUP2 DUP4 DUP6 DUP9 ADD PUSH2 0x1523 JUMP JUMPDEST DUP2 ADD PUSH1 0x2 DUP2 MSTORE SUB ADD SWAP1 KECCAK256 CALLER PUSH12 0xFFFFFFFFFFFFFFFFFFFFFFFF PUSH1 0xA0 SHL DUP3 SLOAD AND OR SWAP1 SSTORE PUSH2 0xB16 PUSH1 0x40 MLOAD SWAP3 DUP4 SWAP3 PUSH1 0x40 DUP5 MSTORE PUSH1 0x40 DUP5 ADD SWAP1 PUSH2 0x1546 JUMP JUMPDEST DUP3 DUP2 SUB PUSH1 0x20 DUP5 ADD MSTORE CALLER SWAP6 PUSH2 0x1546 JUMP JUMPDEST SUB SWAP1 LOG2 STOP JUMPDEST ADD MLOAD SWAP1 POP DUP12 DUP1 PUSH2 0xA4E JUMP JUMPDEST SWAP1 PUSH1 0x2 DUP6 ADD PUSH1 0x0 MSTORE PUSH1 0x20 PUSH1 0x0 KECCAK256 SWAP2 PUSH1 0x0 JUMPDEST PUSH1 0x1F NOT DUP6 AND DUP2 LT PUSH2 0xBAC JUMPI POP PUSH32 0x92822564BAB8864C3A47B34E8D23FBCE5C46234EB5DA261F94087B995AC0F33B SWAP7 SWAP5 PUSH1 0x1 DUP6 PUSH2 0xB07 SWAP9 SWAP6 PUSH1 0x7 SWAP6 PUSH1 0xE0 SWAP6 PUSH2 0xABA SWAP10 PUSH1 0x1F NOT DUP2 AND LT PUSH2 0xB93 JUMPI JUMPDEST POP POP POP DUP2 SHL ADD PUSH1 0x2 DUP6 ADD SSTORE PUSH2 0xA66 JUMP JUMPDEST ADD MLOAD PUSH1 0x0 NOT PUSH1 0xF8 DUP5 PUSH1 0x3 SHL AND SHR NOT AND SWAP1 SSTORE DUP12 DUP1 DUP1 PUSH2 0xB83 JUMP JUMPDEST SWAP2 SWAP3 PUSH1 0x20 PUSH1 0x1 DUP2 SWAP3 DUP7 DUP6 ADD MLOAD DUP2 SSTORE ADD SWAP5 ADD SWAP3 ADD PUSH2 0xB37 JUMP JUMPDEST PUSH1 0x2 DUP6 ADD PUSH1 0x0 MSTORE PUSH1 0x20 PUSH1 0x0 KECCAK256 PUSH1 0x1F DUP5 ADD PUSH1 0x5 SHR DUP2 ADD PUSH1 0x20 DUP6 LT PUSH2 0xC04 JUMPI JUMPDEST PUSH1 0x1F DUP4 ADD PUSH1 0x5 SHR DUP3 ADD DUP2 LT PUSH2 0xBF8 JUMPI POP POP PUSH2 0xA05 JUMP JUMPDEST PUSH1 0x0 DUP2 SSTORE PUSH1 0x1 ADD PUSH2 0xBE2 JUMP JUMPDEST POP DUP1 PUSH2 0xBE2 JUMP JUMPDEST ADD MLOAD SWAP1 POP DUP7 DUP1 PUSH2 0x9C1 JUMP JUMPDEST SWAP3 POP PUSH1 0x1 DUP6 ADD PUSH1 0x0 MSTORE PUSH1 0x20 PUSH1 0x0 KECCAK256 SWAP1 PUSH1 0x0 SWAP4 JUMPDEST PUSH1 0x1F NOT DUP5 AND DUP6 LT PUSH2 0xC6D JUMPI PUSH1 0x1 SWAP5 POP DUP4 PUSH1 0x1F NOT DUP2 AND LT PUSH2 0xC54 JUMPI JUMPDEST POP POP POP DUP2 SHL ADD PUSH1 0x1 DUP4 ADD SSTORE PUSH2 0x9D9 JUMP JUMPDEST ADD MLOAD PUSH1 0x0 NOT PUSH1 0xF8 DUP5 PUSH1 0x3 SHL AND SHR NOT AND SWAP1 SSTORE DUP7 DUP1 DUP1 PUSH2 0xC44 JUMP JUMPDEST DUP2 DUP2 ADD MLOAD DUP4 SSTORE PUSH1 0x20 SWAP5 DUP6 ADD SWAP5 PUSH1 0x1 SWAP1 SWAP4 ADD SWAP3 SWAP1 SWAP2 ADD SWAP1 PUSH2 0xC29 JUMP JUMPDEST SWAP1 SWAP2 POP PUSH1 0x1 DUP6 ADD PUSH1 0x0 MSTORE PUSH1 0x20 PUSH1 0x0 KECCAK256 PUSH1 0x1F DUP5 ADD PUSH1 0x5 SHR DUP2 ADD PUSH1 0x20 DUP6 LT PUSH2 0xCD4 JUMPI JUMPDEST SWAP1 DUP5 SWAP4 SWAP3 SWAP2 JUMPDEST PUSH1 0x1F DUP4 ADD PUSH1 0x5 SHR DUP3 ADD DUP2 LT PUSH2 0xCC5 JUMPI POP POP PUSH2 0x9AA JUMP JUMPDEST PUSH1 0x0 DUP2 SSTORE DUP6 SWAP5 POP PUSH1 0x1 ADD PUSH2 0xCAF JUMP JUMPDEST POP DUP1 PUSH2 0xCA9 JUMP JUMPDEST ADD MLOAD SWAP1 POP DUP7 DUP1 PUSH2 0x967 JUMP JUMPDEST SWAP3 POP DUP5 PUSH1 0x0 MSTORE PUSH1 0x20 PUSH1 0x0 KECCAK256 SWAP1 PUSH1 0x0 SWAP4 JUMPDEST PUSH1 0x1F NOT DUP5 AND DUP6 LT PUSH2 0xD37 JUMPI PUSH1 0x1 SWAP5 POP DUP4 PUSH1 0x1F NOT DUP2 AND LT PUSH2 0xD1E JUMPI JUMPDEST POP POP POP DUP2 SHL ADD DUP3 SSTORE PUSH2 0x97C JUMP JUMPDEST ADD MLOAD PUSH1 0x0 NOT PUSH1 0xF8 DUP5 PUSH1 0x3 SHL AND SHR NOT AND SWAP1 SSTORE DUP7 DUP1 DUP1 PUSH2 0xD11 JUMP JUMPDEST DUP2 DUP2 ADD MLOAD DUP4 SSTORE PUSH1 0x20 SWAP5 DUP6 ADD SWAP5 PUSH1 0x1 SWAP1 SWAP4 ADD SWAP3 SWAP1 SWAP2 ADD SWAP1 PUSH2 0xCF6 JUMP JUMPDEST SWAP1 SWAP2 POP DUP5 PUSH1 0x0 MSTORE PUSH1 0x20 PUSH1 0x0 KECCAK256 PUSH1 0x1F DUP5 ADD PUSH1 0x5 SHR DUP2 ADD PUSH1 0x20 DUP6 LT PUSH2 0xD9B JUMPI JUMPDEST SWAP1 DUP5 SWAP4 SWAP3 SWAP2 JUMPDEST PUSH1 0x1F DUP4 ADD PUSH1 0x5 SHR DUP3 ADD DUP2 LT PUSH2 0xD8C JUMPI POP POP PUSH2 0x950 JUMP JUMPDEST PUSH1 0x0 DUP2 SSTORE DUP6 SWAP5 POP PUSH1 0x1 ADD PUSH2 0xD76 JUMP JUMPDEST POP DUP1 PUSH2 0xD70 JUMP JUMPDEST PUSH1 0x40 MLOAD PUSH3 0x461BCD PUSH1 0xE5 SHL DUP2 MSTORE PUSH1 0x20 PUSH1 0x4 DUP3 ADD MSTORE PUSH1 0x16 PUSH1 0x24 DUP3 ADD MSTORE PUSH22 0x155CD95C88125108185B1C9958591E481B1A5B9AD959 PUSH1 0x52 SHL PUSH1 0x44 DUP3 ADD MSTORE PUSH1 0x64 SWAP1 REVERT JUMPDEST PUSH1 0x40 MLOAD PUSH3 0x461BCD PUSH1 0xE5 SHL DUP2 MSTORE PUSH1 0x20 PUSH1 0x4 DUP3 ADD MSTORE PUSH1 0x17 PUSH1 0x24 DUP3 ADD MSTORE PUSH32 0x5573657220616C72656164792072656769737465726564000000000000000000 PUSH1 0x44 DUP3 ADD MSTORE PUSH1 0x64 SWAP1 REVERT JUMPDEST CALLVALUE PUSH2 0x171 JUMPI PUSH1 0x20 CALLDATASIZE PUSH1 0x3 NOT ADD SLT PUSH2 0x171 JUMPI PUSH1 0x4 CALLDATALOAD PUSH1 0x1 PUSH1 0x1 PUSH1 0x40 SHL SUB DUP2 GT PUSH2 0x171 JUMPI PUSH2 0xE57 PUSH1 0x20 SWAP2 CALLDATASIZE SWAP1 PUSH1 0x4 ADD PUSH2 0x14B7 JUMP JUMPDEST DUP2 PUSH2 0xE6B PUSH1 0x40 MLOAD SWAP3 DUP4 DUP2 MLOAD SWAP4 DUP5 SWAP3 ADD PUSH2 0x1523 JUMP JUMPDEST PUSH1 0x2 SWAP1 DUP3 ADD SWAP1 DUP2 MSTORE DUP2 SWAP1 SUB DUP3 ADD SWAP1 KECCAK256 SLOAD PUSH1 0x40 MLOAD PUSH1 0x1 PUSH1 0x1 PUSH1 0xA0 SHL SUB SWAP1 SWAP2 AND DUP2 MSTORE RETURN JUMPDEST CALLVALUE PUSH2 0x171 JUMPI PUSH1 0x20 CALLDATASIZE PUSH1 0x3 NOT ADD SLT PUSH2 0x171 JUMPI PUSH1 0x1 PUSH1 0x1 PUSH1 0xA0 SHL SUB PUSH2 0xEAE PUSH2 0x150D JUMP JUMPDEST AND PUSH1 0x0 MSTORE PUSH1 0x1 PUSH1 0x20 MSTORE PUSH2 0xF1E PUSH1 0x40 PUSH1 0x0 KECCAK256 PUSH2 0xEC8 DUP2 PUSH2 0x15A5 JUMP JUMPDEST SWAP1 PUSH2 0xED5 PUSH1 0x1 DUP3 ADD PUSH2 0x15A5 JUMP JUMPDEST PUSH2 0xEE1 PUSH1 0x2 DUP4 ADD PUSH2 0x15A5 JUMP JUMPDEST SWAP2 PUSH1 0xFF PUSH1 0x3 DUP3 ADD SLOAD AND SWAP3 PUSH1 0x4 DUP3 ADD SLOAD PUSH2 0xF3A PUSH1 0x5 DUP5 ADD SLOAD SWAP3 PUSH2 0xF2C PUSH1 0xFF PUSH1 0x7 PUSH1 0x6 DUP9 ADD SLOAD SWAP8 ADD SLOAD AND SWAP7 PUSH1 0x40 MLOAD SWAP11 DUP12 SWAP11 PUSH2 0x100 DUP1 DUP14 MSTORE DUP13 ADD SWAP1 PUSH2 0x1546 JUMP JUMPDEST SWAP1 DUP11 DUP3 SUB PUSH1 0x20 DUP13 ADD MSTORE PUSH2 0x1546 JUMP JUMPDEST SWAP1 DUP9 DUP3 SUB PUSH1 0x40 DUP11 ADD MSTORE PUSH2 0x1546 JUMP JUMPDEST SWAP5 ISZERO ISZERO PUSH1 0x60 DUP8 ADD MSTORE PUSH1 0x80 DUP7 ADD MSTORE PUSH1 0xA0 DUP6 ADD MSTORE PUSH1 0xC0 DUP5 ADD MSTORE ISZERO ISZERO PUSH1 0xE0 DUP4 ADD MSTORE SUB SWAP1 RETURN JUMPDEST CALLVALUE PUSH2 0x171 JUMPI PUSH1 0x0 CALLDATASIZE PUSH1 0x3 NOT ADD SLT PUSH2 0x171 JUMPI PUSH1 0x0 SLOAD PUSH1 0x40 MLOAD PUSH1 0x1 PUSH1 0x1 PUSH1 0xA0 SHL SUB SWAP1 SWAP2 AND DUP2 MSTORE PUSH1 0x20 SWAP1 RETURN JUMPDEST CALLVALUE PUSH2 0x171 JUMPI PUSH1 0x0 CALLDATASIZE PUSH1 0x3 NOT ADD SLT PUSH2 0x171 JUMPI PUSH2 0xF9E PUSH2 0x167D JUMP JUMPDEST PUSH1 0x0 DUP1 SLOAD PUSH1 0x1 PUSH1 0x1 PUSH1 0xA0 SHL SUB NOT DUP2 AND DUP3 SSTORE PUSH1 0x1 PUSH1 0x1 PUSH1 0xA0 SHL SUB AND PUSH32 0x8BE0079C531659141344CD1FD0A4F28419497F9722A3DAAFE3B4186F6B6457E0 DUP3 DUP1 LOG3 STOP JUMPDEST CALLVALUE PUSH2 0x171 JUMPI PUSH1 0x20 DUP1 PUSH1 0x3 NOT CALLDATASIZE ADD SLT PUSH2 0x171 JUMPI PUSH2 0x120 SWAP1 PUSH2 0xFFC PUSH2 0x150D JUMP JUMPDEST SWAP1 PUSH1 0x40 MLOAD SWAP2 PUSH2 0x100A DUP4 PUSH2 0x147A JUMP JUMPDEST PUSH1 0x0 PUSH1 0xE0 PUSH1 0x60 SWAP5 DUP6 DUP2 MSTORE DUP6 DUP6 DUP3 ADD MSTORE DUP6 PUSH1 0x40 DUP3 ADD MSTORE DUP3 DUP7 DUP3 ADD MSTORE DUP3 PUSH1 0x80 DUP3 ADD MSTORE DUP3 PUSH1 0xA0 DUP3 ADD MSTORE DUP3 PUSH1 0xC0 DUP3 ADD MSTORE ADD MSTORE PUSH1 0x1 DUP1 PUSH1 0xA0 SHL SUB AND PUSH1 0x0 MSTORE PUSH1 0x1 DUP2 MSTORE PUSH1 0x40 PUSH1 0x0 KECCAK256 SWAP1 PUSH1 0x40 MLOAD SWAP3 PUSH2 0x105A DUP5 PUSH2 0x147A JUMP JUMPDEST PUSH2 0x1063 DUP4 PUSH2 0x15A5 JUMP JUMPDEST DUP5 MSTORE PUSH2 0x1071 PUSH1 0x1 DUP5 ADD PUSH2 0x15A5 JUMP JUMPDEST SWAP3 DUP3 DUP6 ADD SWAP4 DUP5 MSTORE PUSH2 0x1084 PUSH1 0x2 DUP3 ADD PUSH2 0x15A5 JUMP JUMPDEST SWAP4 PUSH1 0x40 DUP7 ADD SWAP5 DUP6 MSTORE PUSH1 0xFF PUSH1 0x3 DUP4 ADD SLOAD AND SWAP5 DUP4 DUP8 ADD SWAP6 ISZERO ISZERO DUP7 MSTORE PUSH2 0x111F PUSH1 0x4 DUP5 ADD SLOAD SWAP2 PUSH1 0x80 DUP10 ADD SWAP3 DUP4 MSTORE PUSH1 0x5 DUP6 ADD SLOAD SWAP4 PUSH1 0xA0 DUP11 ADD SWAP5 DUP6 MSTORE PUSH1 0xFF PUSH1 0x7 PUSH1 0x6 DUP9 ADD SLOAD SWAP8 PUSH1 0xC0 DUP14 ADD SWAP9 DUP10 MSTORE ADD SLOAD AND SWAP7 PUSH1 0xE0 DUP12 ADD SWAP8 ISZERO ISZERO DUP9 MSTORE PUSH2 0x110F PUSH2 0x10F9 PUSH1 0x40 MLOAD DUP1 SWAP15 DUP2 SWAP15 DUP14 DUP4 MSTORE MLOAD SWAP2 PUSH2 0x100 DUP1 SWAP15 DUP3 ADD MSTORE ADD SWAP1 PUSH2 0x1546 JUMP JUMPDEST SWAP3 MLOAD PUSH1 0x1F NOT DUP14 DUP6 SUB DUP2 ADD PUSH1 0x40 DUP16 ADD MSTORE SWAP4 SWAP1 PUSH2 0x1546 JUMP JUMPDEST SWAP3 MLOAD SWAP2 DUP12 DUP5 SUB ADD SWAP1 DUP12 ADD MSTORE PUSH2 0x1546 JUMP JUMPDEST SWAP6 MLOAD ISZERO ISZERO PUSH1 0x80 DUP9 ADD MSTORE MLOAD PUSH1 0xA0 DUP8 ADD MSTORE MLOAD PUSH1 0xC0 DUP7 ADD MSTORE MLOAD PUSH1 0xE0 DUP6 ADD MSTORE MLOAD ISZERO ISZERO SWAP1 DUP4 ADD MSTORE SUB SWAP1 RETURN JUMPDEST CALLVALUE PUSH2 0x171 JUMPI PUSH1 0x20 DUP1 PUSH1 0x3 NOT CALLDATASIZE ADD SLT PUSH2 0x171 JUMPI PUSH1 0x1 PUSH1 0x1 PUSH1 0xA0 SHL SUB PUSH2 0x1167 PUSH2 0x150D JUMP JUMPDEST AND PUSH1 0x0 MSTORE PUSH1 0x3 DUP1 DUP3 MSTORE PUSH1 0x40 PUSH1 0x0 KECCAK256 DUP1 SLOAD PUSH1 0x1 PUSH1 0x1 PUSH1 0x40 SHL SUB DUP2 GT PUSH2 0x668 JUMPI PUSH1 0x40 MLOAD SWAP4 SWAP3 PUSH2 0x119A PUSH1 0x5 DUP4 SWAP1 SHL DUP6 ADD DUP7 PUSH2 0x1496 JUMP JUMPDEST DUP2 DUP6 MSTORE PUSH1 0x0 SWAP3 DUP4 MSTORE DUP4 DUP4 KECCAK256 DUP5 DUP7 ADD SWAP4 SWAP2 DUP5 JUMPDEST DUP5 DUP5 LT PUSH2 0x124C JUMPI PUSH1 0x40 DUP1 MLOAD DUP9 DUP2 MSTORE DUP10 MLOAD DUP2 DUP11 ADD DUP2 SWAP1 MSTORE PUSH1 0x0 SWAP3 PUSH1 0x5 DUP3 SWAP1 SHL DUP4 ADD DUP2 ADD SWAP2 DUP11 SWAP2 DUP13 SWAP1 DUP6 ADD JUMPDEST DUP3 DUP8 LT PUSH2 0x11E3 JUMPI DUP6 DUP6 SUB DUP7 RETURN JUMPDEST SWAP1 SWAP2 SWAP3 SWAP4 DUP3 DUP1 PUSH2 0x123C PUSH1 0x1 SWAP4 PUSH1 0x3F NOT DUP11 DUP3 SUB ADD DUP7 MSTORE DUP9 MLOAD PUSH2 0x121F PUSH2 0x120F DUP3 MLOAD PUSH1 0x80 DUP1 DUP7 MSTORE DUP6 ADD SWAP1 PUSH2 0x1546 JUMP JUMPDEST DUP6 DUP4 ADD MLOAD DUP5 DUP3 SUB DUP8 DUP7 ADD MSTORE PUSH2 0x1546 JUMP JUMPDEST SWAP2 PUSH1 0x40 DUP3 ADD MLOAD PUSH1 0x40 DUP3 ADD MSTORE PUSH1 0x60 DUP1 SWAP3 ADD MLOAD SWAP2 DUP2 DUP5 SUB SWAP2 ADD MSTORE PUSH2 0x1546 JUMP JUMPDEST SWAP7 ADD SWAP3 ADD SWAP7 ADD SWAP6 SWAP3 SWAP2 SWAP1 SWAP3 PUSH2 0x11D6 JUMP JUMPDEST PUSH1 0x4 DUP8 PUSH1 0x1 SWAP3 PUSH1 0x40 SWAP11 SWAP10 SWAP11 MLOAD PUSH2 0x1261 DUP2 PUSH2 0x145F JUMP JUMPDEST PUSH2 0x126A DUP8 PUSH2 0x15A5 JUMP JUMPDEST DUP2 MSTORE PUSH2 0x1277 DUP6 DUP9 ADD PUSH2 0x15A5 JUMP JUMPDEST DUP4 DUP3 ADD MSTORE PUSH1 0x2 DUP8 ADD SLOAD PUSH1 0x40 DUP3 ADD MSTORE PUSH2 0x1290 DUP7 DUP9 ADD PUSH2 0x15A5 JUMP JUMPDEST PUSH1 0x60 DUP3 ADD MSTORE DUP2 MSTORE ADD SWAP4 ADD SWAP4 ADD SWAP3 SWAP2 SWAP7 SWAP6 SWAP7 PUSH2 0x11AC JUMP JUMPDEST CALLVALUE PUSH2 0x171 JUMPI PUSH1 0x20 DUP1 PUSH1 0x3 NOT CALLDATASIZE ADD SLT PUSH2 0x171 JUMPI PUSH1 0x1 PUSH1 0x1 PUSH1 0x40 SHL SUB PUSH1 0x4 CALLDATALOAD DUP2 DUP2 GT PUSH2 0x171 JUMPI PUSH2 0x12D8 SWAP1 CALLDATASIZE SWAP1 PUSH1 0x4 ADD PUSH2 0x14B7 JUMP JUMPDEST CALLER PUSH1 0x0 MSTORE PUSH1 0x1 DUP1 DUP5 MSTORE PUSH2 0x12F5 PUSH1 0xFF PUSH1 0x3 PUSH1 0x40 PUSH1 0x0 KECCAK256 ADD SLOAD AND PUSH2 0x16A9 JUMP JUMPDEST CALLER PUSH1 0x0 MSTORE DUP1 DUP5 MSTORE DUP1 PUSH1 0x40 PUSH1 0x0 KECCAK256 ADD SWAP1 DUP3 MLOAD SWAP4 DUP5 GT PUSH2 0x668 JUMPI PUSH2 0x1317 DUP3 SLOAD PUSH2 0x156B JUMP JUMPDEST PUSH1 0x1F DUP2 GT PUSH2 0x1416 JUMPI JUMPDEST POP DUP5 PUSH1 0x1F DUP6 GT PUSH1 0x1 EQ PUSH2 0x138F JUMPI SWAP4 DUP1 DUP1 PUSH2 0xB16 SWAP6 SWAP5 SWAP4 PUSH32 0xDD635A4CD84864E37E4479DBFC2EC667ACFA473C83C8422A8AC9D9D07599B01C SWAP8 PUSH1 0x0 SWAP4 PUSH2 0x1384 JUMPI JUMPDEST POP SHL SWAP2 PUSH1 0x0 NOT SWAP1 PUSH1 0x3 SHL SHR NOT AND OR SWAP1 SSTORE JUMPDEST PUSH1 0x40 MLOAD SWAP2 DUP3 SWAP2 DUP6 DUP4 MSTORE CALLER SWAP6 DUP4 ADD SWAP1 PUSH2 0x1546 JUMP JUMPDEST DUP7 ADD MLOAD SWAP3 POP DUP10 PUSH2 0x1360 JUMP JUMPDEST PUSH1 0x1F NOT DUP6 AND SWAP1 DUP4 PUSH1 0x0 MSTORE DUP7 PUSH1 0x0 KECCAK256 SWAP2 PUSH1 0x0 JUMPDEST DUP9 DUP3 DUP3 LT PUSH2 0x1402 JUMPI POP POP SWAP2 DUP7 SWAP2 PUSH32 0xDD635A4CD84864E37E4479DBFC2EC667ACFA473C83C8422A8AC9D9D07599B01C SWAP8 PUSH2 0xB16 SWAP8 SWAP7 SWAP6 SWAP5 LT PUSH2 0x13E9 JUMPI JUMPDEST POP POP DUP2 SHL ADD SWAP1 SSTORE PUSH2 0x1371 JUMP JUMPDEST DUP6 ADD MLOAD PUSH1 0x0 NOT PUSH1 0xF8 DUP5 PUSH1 0x3 SHL AND SHR NOT AND SWAP1 SSTORE DUP8 DUP1 PUSH2 0x13DD JUMP JUMPDEST DUP8 DUP5 ADD MLOAD DUP6 SSTORE SWAP4 DUP6 ADD SWAP4 SWAP3 DUP4 ADD SWAP3 ADD PUSH2 0x13A1 JUMP JUMPDEST DUP3 PUSH1 0x0 MSTORE DUP6 PUSH1 0x0 KECCAK256 PUSH1 0x1F DUP7 ADD PUSH1 0x5 SHR DUP2 ADD SWAP2 DUP8 DUP8 LT PUSH2 0x1455 JUMPI JUMPDEST PUSH1 0x1F ADD PUSH1 0x5 SHR ADD SWAP1 DUP3 SWAP1 JUMPDEST DUP3 DUP2 LT PUSH2 0x1449 JUMPI POP POP PUSH2 0x1320 JUMP JUMPDEST PUSH1 0x0 DUP2 SSTORE ADD DUP3 SWAP1 PUSH2 0x143B JUMP JUMPDEST SWAP1 SWAP2 POP DUP2 SWAP1 PUSH2 0x1430 JUMP JUMPDEST PUSH1 0x80 DUP2 ADD SWAP1 DUP2 LT PUSH1 0x1 PUSH1 0x1 PUSH1 0x40 SHL SUB DUP3 GT OR PUSH2 0x668 JUMPI PUSH1 0x40 MSTORE JUMP JUMPDEST PUSH2 0x100 DUP2 ADD SWAP1 DUP2 LT PUSH1 0x1 PUSH1 0x1 PUSH1 0x40 SHL SUB DUP3 GT OR PUSH2 0x668 JUMPI PUSH1 0x40 MSTORE JUMP JUMPDEST SWAP1 PUSH1 0x1F DUP1 NOT SWAP2 ADD AND DUP2 ADD SWAP1 DUP2 LT PUSH1 0x1 PUSH1 0x1 PUSH1 0x40 SHL SUB DUP3 GT OR PUSH2 0x668 JUMPI PUSH1 0x40 MSTORE JUMP JUMPDEST DUP2 PUSH1 0x1F DUP3 ADD SLT ISZERO PUSH2 0x171 JUMPI DUP1 CALLDATALOAD SWAP1 PUSH1 0x1 PUSH1 0x1 PUSH1 0x40 SHL SUB DUP3 GT PUSH2 0x668 JUMPI PUSH1 0x40 MLOAD SWAP3 PUSH2 0x14EB PUSH1 0x1F DUP5 ADD PUSH1 0x1F NOT AND PUSH1 0x20 ADD DUP6 PUSH2 0x1496 JUMP JUMPDEST DUP3 DUP5 MSTORE PUSH1 0x20 DUP4 DUP4 ADD ADD GT PUSH2 0x171 JUMPI DUP2 PUSH1 0x0 SWAP3 PUSH1 0x20 DUP1 SWAP4 ADD DUP4 DUP7 ADD CALLDATACOPY DUP4 ADD ADD MSTORE SWAP1 JUMP JUMPDEST PUSH1 0x4 CALLDATALOAD SWAP1 PUSH1 0x1 PUSH1 0x1 PUSH1 0xA0 SHL SUB DUP3 AND DUP3 SUB PUSH2 0x171 JUMPI JUMP JUMPDEST PUSH1 0x0 JUMPDEST DUP4 DUP2 LT PUSH2 0x1536 JUMPI POP POP PUSH1 0x0 SWAP2 ADD MSTORE JUMP JUMPDEST DUP2 DUP2 ADD MLOAD DUP4 DUP3 ADD MSTORE PUSH1 0x20 ADD PUSH2 0x1526 JUMP JUMPDEST SWAP1 PUSH1 0x20 SWAP2 PUSH2 0x155F DUP2 MLOAD DUP1 SWAP3 DUP2 DUP6 MSTORE DUP6 DUP1 DUP7 ADD SWAP2 ADD PUSH2 0x1523 JUMP JUMPDEST PUSH1 0x1F ADD PUSH1 0x1F NOT AND ADD ADD SWAP1 JUMP JUMPDEST SWAP1 PUSH1 0x1 DUP3 DUP2 SHR SWAP3 AND DUP1 ISZERO PUSH2 0x159B JUMPI JUMPDEST PUSH1 0x20 DUP4 LT EQ PUSH2 0x1585 JUMPI JUMP JUMPDEST PUSH4 0x4E487B71 PUSH1 0xE0 SHL PUSH1 0x0 MSTORE PUSH1 0x22 PUSH1 0x4 MSTORE PUSH1 0x24 PUSH1 0x0 REVERT JUMPDEST SWAP2 PUSH1 0x7F AND SWAP2 PUSH2 0x157A JUMP JUMPDEST SWAP1 PUSH1 0x40 MLOAD SWAP2 DUP3 PUSH1 0x0 DUP3 SLOAD SWAP3 PUSH2 0x15B9 DUP5 PUSH2 0x156B JUMP JUMPDEST SWAP1 DUP2 DUP5 MSTORE PUSH1 0x1 SWAP5 DUP6 DUP2 AND SWAP1 DUP2 PUSH1 0x0 EQ PUSH2 0x1628 JUMPI POP PUSH1 0x1 EQ PUSH2 0x15E5 JUMPI JUMPDEST POP POP PUSH2 0x15E3 SWAP3 POP SUB DUP4 PUSH2 0x1496 JUMP JUMPDEST JUMP JUMPDEST SWAP1 SWAP4 SWAP2 POP PUSH1 0x0 MSTORE PUSH1 0x20 SWAP1 DUP2 PUSH1 0x0 KECCAK256 SWAP4 PUSH1 0x0 SWAP2 JUMPDEST DUP2 DUP4 LT PUSH2 0x1610 JUMPI POP POP PUSH2 0x15E3 SWAP4 POP DUP3 ADD ADD CODESIZE DUP1 PUSH2 0x15D5 JUMP JUMPDEST DUP6 SLOAD DUP9 DUP5 ADD DUP6 ADD MSTORE SWAP5 DUP6 ADD SWAP5 DUP8 SWAP5 POP SWAP2 DUP4 ADD SWAP2 PUSH2 0x15F8 JUMP JUMPDEST SWAP2 POP POP PUSH2 0x15E3 SWAP5 POP PUSH1 0x20 SWAP3 POP PUSH1 0xFF NOT AND DUP3 DUP5 ADD MSTORE ISZERO ISZERO PUSH1 0x5 SHL DUP3 ADD ADD CODESIZE DUP1 PUSH2 0x15D5 JUMP JUMPDEST DUP1 SLOAD DUP3 LT ISZERO PUSH2 0x1667 JUMPI PUSH1 0x0 MSTORE PUSH1 0x20 PUSH1 0x0 KECCAK256 SWAP1 PUSH1 0x2 SHL ADD SWAP1 PUSH1 0x0 SWAP1 JUMP JUMPDEST PUSH4 0x4E487B71 PUSH1 0xE0 SHL PUSH1 0x0 MSTORE PUSH1 0x32 PUSH1 0x4 MSTORE PUSH1 0x24 PUSH1 0x0 REVERT JUMPDEST PUSH1 0x0 SLOAD PUSH1 0x1 PUSH1 0x1 PUSH1 0xA0 SHL SUB AND CALLER SUB PUSH2 0x1691 JUMPI JUMP JUMPDEST PUSH1 0x40 MLOAD PUSH4 0x118CDAA7 PUSH1 0xE0 SHL DUP2 MSTORE CALLER PUSH1 0x4 DUP3 ADD MSTORE PUSH1 0x24 SWAP1 REVERT JUMPDEST ISZERO PUSH2 0x16B0 JUMPI JUMP JUMPDEST PUSH1 0x40 MLOAD PUSH3 0x461BCD PUSH1 0xE5 SHL DUP2 MSTORE PUSH1 0x20 PUSH1 0x4 DUP3 ADD MSTORE PUSH1 0x13 PUSH1 0x24 DUP3 ADD MSTORE PUSH19 0x155CD95C881B9BDD081C9959DA5CDD195C9959 PUSH1 0x6A SHL PUSH1 0x44 DUP3 ADD MSTORE PUSH1 0x64 SWAP1 REVERT INVALID LOG2 PUSH5 0x6970667358 0x22 SLT KECCAK256 0xAC 0xB0 PUSH9 0xB25845B140701B39CF SWAP1 DUP4 0xCE SUB PUSH9 0x230917F25B2A264C52 0xC4 0xDF PUSH5 0x49019A6473 PUSH16 0x6C634300081400330000000000000000 "},"methodIdentifiers":{"getAddressByUserId(string)":"6b42cdbe","getUser(address)":"6f77926b","getUserBadges(address)":"37c245fe","issueBadge(address,string,string)":"de2cff03","owner()":"8da5cb5b","registerUser(string,string,string)":"d637dcfa","renounceOwnership()":"715018a6","transferOwnership(address)":"f2fde38b","updateProfile(string)":"009299e3","updateReputation(address,uint256)":"f5c91a08","userBadges(address,uint256)":"df91cc23","userIdToAddress(string)":"c21be6ae","users(address)":"a87430ba"}}}}}